{
  "address": "0xDc64a140Aa3E981100a9becA4E685f962f0cF6C9",
  "abi": [
    {
      "inputs": [
        {
          "internalType": "address",
          "name": "_user",
          "type": "address"
        }
      ],
      "name": "calculateAvailableBorrowsETH",
      "outputs": [
        {
          "internalType": "uint256",
          "name": "",
          "type": "uint256"
        }
      ],
      "stateMutability": "view",
      "type": "function"
    },
    {
      "inputs": [
        {
          "internalType": "address",
          "name": "_principal",
          "type": "address"
        },
        {
          "internalType": "address",
          "name": "_collateral",
          "type": "address"
        },
        {
          "internalType": "uint256",
          "name": "_purchaseAmount",
          "type": "uint256"
        },
        {
          "internalType": "uint256",
          "name": "_userCollateralBalance",
          "type": "uint256"
        }
      ],
      "name": "calculateAvailableCollateralToLiquidate",
      "outputs": [
        {
          "internalType": "uint256",
          "name": "collateralAmount",
          "type": "uint256"
        },
        {
          "internalType": "uint256",
          "name": "principalAmount",
          "type": "uint256"
        }
      ],
      "stateMutability": "view",
      "type": "function"
    },
    {
      "inputs": [
        {
          "internalType": "address",
          "name": "_pool",
          "type": "address"
        },
        {
          "internalType": "uint256",
          "name": "_amount",
          "type": "uint256"
        },
        {
          "internalType": "uint256",
          "name": "_fee",
          "type": "uint256"
        },
        {
          "internalType": "uint256",
          "name": "_userCurrentBorrowBalanceETH",
          "type": "uint256"
        },
        {
          "internalType": "uint256",
          "name": "_userCurrentFeesETH",
          "type": "uint256"
        },
        {
          "internalType": "uint256",
          "name": "_userCurrentLTV",
          "type": "uint256"
        }
      ],
      "name": "calculateCollateralNeededInETH",
      "outputs": [
        {
          "internalType": "uint256",
          "name": "collateralNeededInETH",
          "type": "uint256"
        }
      ],
      "stateMutability": "view",
      "type": "function"
    },
    {
      "inputs": [
        {
          "internalType": "address",
          "name": "_pool",
          "type": "address"
        },
        {
          "internalType": "uint256",
          "name": "_amount",
          "type": "uint256"
        }
      ],
      "name": "calculateExpectedVariableBorrowRate",
      "outputs": [
        {
          "internalType": "uint256",
          "name": "",
          "type": "uint256"
        }
      ],
      "stateMutability": "view",
      "type": "function"
    },
    {
      "inputs": [
        {
          "internalType": "address",
          "name": "_pool",
          "type": "address"
        },
        {
          "internalType": "address",
          "name": "_user",
          "type": "address"
        }
      ],
      "name": "calculateUserAmountToRepay",
      "outputs": [
        {
          "internalType": "uint256",
          "name": "",
          "type": "uint256"
        }
      ],
      "stateMutability": "view",
      "type": "function"
    },
    {
      "inputs": [],
      "name": "getAllActivePoolAssetNames",
      "outputs": [
        {
          "internalType": "string[]",
          "name": "",
          "type": "string[]"
        }
      ],
      "stateMutability": "view",
      "type": "function"
    },
    {
      "inputs": [],
      "name": "getAllActivePools",
      "outputs": [
        {
          "internalType": "address[]",
          "name": "",
          "type": "address[]"
        }
      ],
      "stateMutability": "view",
      "type": "function"
    },
    {
      "inputs": [
        {
          "internalType": "address",
          "name": "_pool",
          "type": "address"
        },
        {
          "internalType": "address",
          "name": "_userToLiquidate",
          "type": "address"
        }
      ],
      "name": "getMaxAmountToRepayOnLiquidation",
      "outputs": [
        {
          "internalType": "uint256",
          "name": "maxPrincipalAmount",
          "type": "uint256"
        }
      ],
      "stateMutability": "view",
      "type": "function"
    },
    {
      "inputs": [
        {
          "internalType": "address",
          "name": "_pool",
          "type": "address"
        },
        {
          "internalType": "uint256",
          "name": "_amount",
          "type": "uint256"
        }
      ],
      "name": "getPoolAmountInETH",
      "outputs": [
        {
          "internalType": "uint256",
          "name": "",
          "type": "uint256"
        }
      ],
      "stateMutability": "view",
      "type": "function"
    },
    {
      "inputs": [
        {
          "internalType": "address",
          "name": "_pool",
          "type": "address"
        },
        {
          "internalType": "address",
          "name": "_user",
          "type": "address"
        }
      ],
      "name": "getPoolDisplayData",
      "outputs": [
        {
          "components": [
            {
              "internalType": "string",
              "name": "asset",
              "type": "string"
            },
            {
              "internalType": "uint256",
              "name": "loanToValue",
              "type": "uint256"
            },
            {
              "internalType": "uint256",
              "name": "liquidationThreshold",
              "type": "uint256"
            },
            {
              "internalType": "uint256",
              "name": "liquidationBonus",
              "type": "uint256"
            },
            {
              "internalType": "uint256",
              "name": "depositedLiquidity",
              "type": "uint256"
            },
            {
              "internalType": "uint256",
              "name": "borrowedLiquidity",
              "type": "uint256"
            },
            {
              "internalType": "uint256",
              "name": "userBorrowedLiquidity",
              "type": "uint256"
            },
            {
              "internalType": "uint256",
              "name": "userRepayAmount",
              "type": "uint256"
            },
            {
              "internalType": "bool",
              "name": "isBorrowingEnabled",
              "type": "bool"
            },
            {
              "internalType": "bool",
              "name": "isUsableAsCollateral",
              "type": "bool"
            }
          ],
          "internalType": "struct LibFacet.getPoolDisplayDataLocalVars",
          "name": "",
          "type": "tuple"
        }
      ],
      "stateMutability": "view",
      "type": "function"
    },
    {
      "inputs": [
        {
          "internalType": "address",
          "name": "_pool",
          "type": "address"
        },
        {
          "internalType": "address",
          "name": "_user",
          "type": "address"
        }
      ],
      "name": "getPoolLendData",
      "outputs": [
        {
          "internalType": "string",
          "name": "asset",
          "type": "string"
        },
        {
          "internalType": "uint256",
          "name": "depositedLiquidity",
          "type": "uint256"
        },
        {
          "internalType": "uint256",
          "name": "userDepositedLiquidity",
          "type": "uint256"
        },
        {
          "internalType": "uint256",
          "name": "userMaxRedeemAmount",
          "type": "uint256"
        },
        {
          "internalType": "uint256",
          "name": "borrowedLiquidity",
          "type": "uint256"
        },
        {
          "internalType": "uint256",
          "name": "depositAPY",
          "type": "uint256"
        },
        {
          "internalType": "uint256",
          "name": "loanToValue",
          "type": "uint256"
        },
        {
          "internalType": "bool",
          "name": "isUsableAsCollateral",
          "type": "bool"
        }
      ],
      "stateMutability": "view",
      "type": "function"
    },
    {
      "inputs": [
        {
          "internalType": "address",
          "name": "_pool",
          "type": "address"
        },
        {
          "internalType": "address",
          "name": "_user",
          "type": "address"
        }
      ],
      "name": "getUserCollateralAmount",
      "outputs": [
        {
          "internalType": "uint256",
          "name": "",
          "type": "uint256"
        }
      ],
      "stateMutability": "view",
      "type": "function"
    },
    {
      "inputs": [
        {
          "internalType": "address",
          "name": "_user",
          "type": "address"
        }
      ],
      "name": "getUserGlobalData",
      "outputs": [
        {
          "internalType": "uint256",
          "name": "totalLiquidityBalanceETH",
          "type": "uint256"
        },
        {
          "internalType": "uint256",
          "name": "totalCollateralBalanceETH",
          "type": "uint256"
        },
        {
          "internalType": "uint256",
          "name": "totalBorrowBalanceETH",
          "type": "uint256"
        },
        {
          "internalType": "uint256",
          "name": "totalFeesETH",
          "type": "uint256"
        },
        {
          "internalType": "uint256",
          "name": "currentLTV",
          "type": "uint256"
        },
        {
          "internalType": "uint256",
          "name": "currentLiquidationThreshold",
          "type": "uint256"
        },
        {
          "internalType": "uint256",
          "name": "healthFactor",
          "type": "uint256"
        },
        {
          "internalType": "bool",
          "name": "healthFactorBelowThreshold",
          "type": "bool"
        }
      ],
      "stateMutability": "view",
      "type": "function"
    },
    {
      "inputs": [
        {
          "internalType": "address",
          "name": "_pool",
          "type": "address"
        },
        {
          "internalType": "address",
          "name": "_user",
          "type": "address"
        }
      ],
      "name": "getUserPoolData",
      "outputs": [
        {
          "internalType": "uint256",
          "name": "currentBorrowBalance",
          "type": "uint256"
        },
        {
          "internalType": "uint256",
          "name": "principalBorrowBalance",
          "type": "uint256"
        },
        {
          "internalType": "uint256",
          "name": "liquidityRate",
          "type": "uint256"
        },
        {
          "internalType": "uint256",
          "name": "originationFee",
          "type": "uint256"
        },
        {
          "internalType": "uint256",
          "name": "variableBorrowIndex",
          "type": "uint256"
        },
        {
          "internalType": "uint256",
          "name": "lastUpdatedTimestamp",
          "type": "uint256"
        },
        {
          "internalType": "enum LibFacet.InterestRateMode",
          "name": "borrowRateMode",
          "type": "uint8"
        },
        {
          "internalType": "bool",
          "name": "usageAsCollateralEnabled",
          "type": "bool"
        }
      ],
      "stateMutability": "view",
      "type": "function"
    },
    {
      "inputs": [
        {
          "internalType": "address",
          "name": "_pool",
          "type": "address"
        },
        {
          "internalType": "address",
          "name": "_user",
          "type": "address"
        }
      ],
      "name": "getUserRewardShare",
      "outputs": [
        {
          "internalType": "uint256",
          "name": "",
          "type": "uint256"
        }
      ],
      "stateMutability": "view",
      "type": "function"
    }
  ],
  "transactionHash": "0x80afae5b76fa96c1a81b2104bf7a9a471882034d907d64fdc19c3c56300f7ba1",
  "args": [],
  "numDeployments": 1,
  "solcInputHash": "827d2890bced3c86a2ad1b35f517b9ae",
  "bytecode": "0x608060405234801561001057600080fd5b5061224c806100206000396000f3fe608060405234801561001057600080fd5b50600436106100c55760003560e01c806312737c33146100ca5780631e732ca3146100f0578063257fd1af14610103578063430d0b5b14610116578063491db4a21461013d5780634b1f6d531461016457806352791cc31461018c578063623b343b146101ac578063840794bc146101bf578063981c36fa146101d25780639872cb19146101e5578063cf6bd206146101f8578063d0dba4c81461020d578063d5cd7d2014610220578063e1fa02ba14610235575b600080fd5b6100dd6100d83660046119d3565b610285565b6040519081526020015b60405180910390f35b6100dd6100fe366004611a1d565b6103cf565b6100dd610111366004611a50565b6104b9565b610129610124366004611a1d565b6104ec565b6040516100e7989796959493929190611abb565b61015061014b366004611a1d565b610656565b6040516100e7989796959493929190611b08565b610177610172366004611b6b565b610994565b604080519283526020830191909152016100e7565b61019f61019a366004611a1d565b610b88565b6040516100e79190611bad565b6100dd6101ba366004611a1d565b610c53565b6100dd6101cd366004611c40565b610cbc565b6100dd6101e0366004611a1d565b610dad565b6100dd6101f3366004611c40565b610e30565b610200610f2f565b6040516100e79190611c6a565b6100dd61021b366004611a1d565b61116c565b610228611250565b6040516100e79190611ccc565b610248610243366004611a50565b6113d6565b604080519889526020890197909752958701949094526060860192909252608085015260a084015260c0830152151560e0820152610100016100e7565b60008061029061182c565b60405163d79357fb60e01b8152909150600090309063d79357fb906102b9908c90600401611d19565b602060405180830381865afa1580156102d6573d6000803e3d6000fd5b505050506040513d601f19601f820116820180604052508101906102fa9190611d2d565b9050600061030982600a611e40565b610313898b611e4c565b60405163b3596f0760e01b81526001600160a01b0386169063b3596f079061033f908f90600401611d19565b602060405180830381865afa15801561035c573d6000803e3d6000fd5b505050506040513d601f19601f820116820180604052508101906103809190611d2d565b61038a9190611e5f565b6103949190611e76565b905084816103a2888a611e4c565b6103ac9190611e4c565b6103b7906064611e5f565b6103c19190611e76565b9a9950505050505050505050565b604051639fb8afcd60e01b815260009081903090639fb8afcd906103f99087908790600401611e98565b606060405180830381865afa158015610416573d6000803e3d6000fd5b505050506040513d601f19601f8201168201806040525081019061043a9190611eb2565b5060405163249bbe9160e01b81526004810182905290925060009150309063249bbe9190602401602060405180830381865afa15801561047e573d6000803e3d6000fd5b505050506040513d601f19601f820116820180604052508101906104a29190611d2d565b90506104ae8183611e4c565b925050505b92915050565b60008060008060006104ca866113d6565b5050509450945094509450506104e28484848461185a565b9695505050505050565b60606000806000806000806000306001600160a01b031663517a55d78b8b6040518363ffffffff1660e01b8152600401610527929190611e98565b600060405180830381865afa158015610544573d6000803e3d6000fd5b505050506040513d6000823e601f3d908101601f1916820160405261056c9190810190611fac565b60405162b6c59160e31b8152959d50939b5091995096509350915030906305b62c889061059d908d90600401611d19565b602060405180830381865afa1580156105ba573d6000803e3d6000fd5b505050506040513d601f19601f820116820180604052508101906105de9190611d2d565b60405163a99901a360e01b8152909350309063a99901a390610606908d908d90600401611e98565b602060405180830381865afa158015610623573d6000803e3d6000fd5b505050506040513d601f19601f820116820180604052508101906106479190611d2d565b94509295985092959890939650565b6000806000806000806000806000309050806001600160a01b0316639fb8afcd8c8c6040518363ffffffff1660e01b8152600401610695929190611e98565b606060405180830381865afa1580156106b2573d6000803e3d6000fd5b505050506040513d601f19601f820116820180604052508101906106d69190611eb2565b50604051631ca19f1960e01b8152909a509098506001600160a01b03821690631ca19f199061070b908e908e90600401611e98565b602060405180830381865afa158015610728573d6000803e3d6000fd5b505050506040513d601f19601f8201168201806040525081019061074c919061201e565b6040516338c06fbf60e21b81529093506001600160a01b0382169063e301befc9061077b908e90600401611d19565b602060405180830381865afa158015610798573d6000803e3d6000fd5b505050506040513d601f19601f820116820180604052508101906107bc9190611d2d565b604051633faacc6b60e21b81529097506001600160a01b0382169063feab31ac906107ed908e908e90600401611e98565b602060405180830381865afa15801561080a573d6000803e3d6000fd5b505050506040513d601f19601f8201168201806040525081019061082e9190611d2d565b6040516359e7d6e560e01b81529096506001600160a01b038216906359e7d6e59061085f908e908e90600401611e98565b602060405180830381865afa15801561087c573d6000803e3d6000fd5b505050506040513d601f19601f820116820180604052508101906108a09190611d2d565b604051632da1297d60e01b81529095506001600160a01b03821690632da1297d906108d1908e908e90600401611e98565b602060405180830381865afa1580156108ee573d6000803e3d6000fd5b505050506040513d601f19601f820116820180604052508101906109129190611d2d565b6040516328ff386160e11b81529094506001600160a01b038216906351fe70c290610943908e908e90600401611e98565b602060405180830381865afa158015610960573d6000803e3d6000fd5b505050506040513d601f19601f82011682018060405250810190610984919061203f565b9150509295985092959890939650565b60008060006109a161182c565b90506000816001600160a01b031663b3596f07896040518263ffffffff1660e01b81526004016109d19190611d19565b602060405180830381865afa1580156109ee573d6000803e3d6000fd5b505050506040513d601f19601f82011682018060405250810190610a129190611d2d565b90506000826001600160a01b031663b3596f07896040518263ffffffff1660e01b8152600401610a429190611d19565b602060405180830381865afa158015610a5f573d6000803e3d6000fd5b505050506040513d601f19601f82011682018060405250810190610a839190611d2d565b6040516346451e8560e01b815290915060009030906346451e8590610aac908c90600401611d19565b602060405180830381865afa158015610ac9573d6000803e3d6000fd5b505050506040513d601f19601f82011682018060405250810190610aed9190611d2d565b9050600082610afc858b611e5f565b610b069190611e76565b90506064610b148383611e5f565b610b1e9190611e76565b610b289082611e4c565b905087811115610b735787965083610b408489611e5f565b610b4a9190611e76565b95506064610b588388611e5f565b610b629190611e76565b610b6c908761205a565b9550610b7a565b8096508895505b505050505094509492505050565b610be260405180610140016040528060608152602001600081526020016000815260200160008152602001600081526020016000815260200160008152602001600081526020016000151581526020016000151581525090565b60405163f64619b360e01b8152309063f64619b390610c079086908690600401611e98565b600060405180830381865afa158015610c24573d6000803e3d6000fd5b505050506040513d6000823e601f3d908101601f19168201604052610c4c919081019061206d565b9392505050565b60405163f2ba567760e01b8152600090309063f2ba567790610c7b9086908690600401611e98565b602060405180830381865afa158015610c98573d6000803e3d6000fd5b505050506040513d601f19601f82011682018060405250810190610c4c9190611d2d565b600080610cc7611917565b6001600160a01b03851660009081526020919091526040812060028101549092503090638f88552890610cfb90879061205a565b868560030154610d0b9190611e4c565b601186015460128701546013880154601089015460405160e088901b6001600160e01b03191681526004810196909652602486019490945260448501929092526064840152608483015260a482015260c4016040805180830381865afa158015610d79573d6000803e3d6000fd5b505050506040513d601f19601f82011682018060405250810190610d9d919061214a565b5090506104ae6298968082611e76565b604051639fb8afcd60e01b815260009081903090639fb8afcd90610dd79087908790600401611e98565b606060405180830381865afa158015610df4573d6000803e3d6000fd5b505050506040513d601f19601f82011682018060405250810190610e189190611eb2565b509150610e289050600282611e76565b949350505050565b60405163d79357fb60e01b81526000908190309063d79357fb90610e58908790600401611d19565b602060405180830381865afa158015610e75573d6000803e3d6000fd5b505050506040513d601f19601f82011682018060405250810190610e999190611d2d565b9050610ea681600a611e40565b83610eaf61182c565b6001600160a01b031663b3596f07876040518263ffffffff1660e01b8152600401610eda9190611d19565b602060405180830381865afa158015610ef7573d6000803e3d6000fd5b505050506040513d601f19601f82011682018060405250810190610f1b9190611d2d565b610f259190611e5f565b610e289190611e76565b60606000610f3b611917565b600101805480602002602001604051908101604052809291908181526020018280548015610f9257602002820191906000526020600020905b81546001600160a01b03168152600190910190602001808311610f74575b50505050509050600081516001600160401b03811115610fb457610fb4611ee0565b604051908082528060200260200182016040528015610fe757816020015b6060815260200190600190039081610fd25790505b5090506000805b835181101561116357610fff611917565b60000160008583815181106110165761101661216e565b60200260200101516001600160a01b03166001600160a01b03168152602001908152602001600020600e0160029054906101000a900460ff16156111515761105c611917565b60000160008583815181106110735761107361216e565b60200260200101516001600160a01b03166001600160a01b0316815260200190815260200160002060000180546110a990612184565b80601f01602080910402602001604051908101604052809291908181526020018280546110d590612184565b80156111225780601f106110f757610100808354040283529160200191611122565b820191906000526020600020905b81548152906001019060200180831161110557829003601f168201915b5050505050838380611133906121be565b9450815181106111455761114561216e565b60200260200101819052505b8061115b816121be565b915050610fee565b50909392505050565b600080611177611917565b6001600160a01b038086166000908152602092835260408082209287168252601890920190925281205491508190036111b45760009150506104b3565b6000806111bf611917565b6001600160a01b03871660009081526020919091526040812091505b6017820154811015611245578160180160008360170183815481106112025761120261216e565b60009182526020808320909101546001600160a01b031683528201929092526040019020546112319084611e4c565b92508061123d816121be565b9150506111db565b506104e2838361193b565b6060600061125c611917565b6001018054806020026020016040519081016040528092919081815260200182805480156112b357602002820191906000526020600020905b81546001600160a01b03168152600190910190602001808311611295575b50505050509050600081516001600160401b038111156112d5576112d5611ee0565b6040519080825280602002602001820160405280156112fe578160200160208202803683370190505b5090506000805b835181101561116357611316611917565b600001600085838151811061132d5761132d61216e565b60200260200101516001600160a01b03166001600160a01b03168152602001908152602001600020600e0160029054906101000a900460ff16156113c45783818151811061137d5761137d61216e565b6020026020010151838380611391906121be565b9450815181106113a3576113a361216e565b60200260200101906001600160a01b031690816001600160a01b0316815250505b806113ce816121be565b915050611305565b6000806000806000806000806114436040518061016001604052806000815260200160008152602001600081526020016000815260200160008152602001600081526020016000815260200160008152602001600081526020016000151581526020016000151581525090565b30600061144e611917565b6001018054806020026020016040519081016040528092919081815260200182805480156114a557602002820191906000526020600020905b81546001600160a01b03168152600190910190602001808311611487575b5050505050905060005b81518110156117cc57826001600160a01b03166319aafc588383815181106114d9576114d961216e565b60200260200101518f6040518363ffffffff1660e01b81526004016114ff929190611e98565b608060405180830381865afa15801561151c573d6000803e3d6000fd5b505050506040513d601f19601f8201168201806040525081019061154091906121d7565b151561012088015260408701526020860181905290855215801561156357508351155b6117ba57826001600160a01b0316636f44bb698383815181106115885761158861216e565b60200260200101516040518263ffffffff1660e01b81526004016115ac9190611d19565b608060405180830381865afa1580156115c9573d6000803e3d6000fd5b505050506040513d601f19601f820116820180604052508101906115ed91906121d7565b151561014088015260a087015260808601526060850181905261161190600a611e40565b60c085015261161e61182c565b6001600160a01b031663b3596f0783838151811061163e5761163e61216e565b60200260200101516040518263ffffffff1660e01b81526004016116629190611d19565b602060405180830381865afa15801561167f573d6000803e3d6000fd5b505050506040513d601f19601f820116820180604052508101906116a39190611d2d565b60e08501528351156117515760c0840151845160e08601516116c59190611e5f565b6116cf9190611e76565b61010085018190526116e1908d611e4c565b9b5083610140015180156116f757508361012001515b156117515761010084015161170c908c611e4c565b9a5083608001518461010001516117239190611e5f565b61172d9089611e4c565b97508360a001518461010001516117449190611e5f565b61174e9088611e4c565b96505b6020840151156117ba578360c0015184602001518560e001516117749190611e5f565b61177e9190611e76565b611788908b611e4c565b99508360c001518460e0015185604001516117a39190611e5f565b6117ad9190611e76565b6117b7908a611e4c565b98505b806117c4816121be565b9150506114af565b5060008a116117dc5760006117e6565b6117e68a88611e76565b965060008a116117f7576000611801565b6118018a87611e76565b955061180f8a8a8a89611972565b9450670de0b6b3a764000085109350505050919395975091939597565b7fff5923912191a1cc1ce52c1e63600d3ff20a63ae0f4211e3199b7ba72a991b5d546001600160a01b031690565b60008060646118698488611e5f565b6118739190611e76565b9050848111611886576000915050610e28565b6118908486611e4c565b61189a908261205a565b60405163249bbe9160e01b815260048101829052909150600090309063249bbe9190602401602060405180830381865afa1580156118dc573d6000803e3d6000fd5b505050506040513d601f19601f820116820180604052508101906119009190611d2d565b905061190c818361205a565b979650505050505050565b7f66cfe6d1341bbca11619797516c7fbf0624d144c78b9a40a4a3b4fb518fc11b690565b60008115670de0b6b3a76400006002840419048411171561195b57600080fd5b50670de0b6b3a76400009190910260028204010490565b6000836000036119855750600019610e28565b6119ae6119928486611e4c565b606461199e8589611e5f565b6119a89190611e76565b9061193b565b95945050505050565b80356001600160a01b03811681146119ce57600080fd5b919050565b60008060008060008060c087890312156119ec57600080fd5b6119f5876119b7565b9860208801359850604088013597606081013597506080810135965060a00135945092505050565b60008060408385031215611a3057600080fd5b611a39836119b7565b9150611a47602084016119b7565b90509250929050565b600060208284031215611a6257600080fd5b610c4c826119b7565b60005b83811015611a86578181015183820152602001611a6e565b50506000910152565b60008151808452611aa7816020860160208601611a6b565b601f01601f19169290920160200192915050565b6000610100808352611acf8184018c611a8f565b602084019a909a52505060408101969096526060860194909452608085019290925260a084015260c0830152151560e090910152919050565b6000610100820190508982528860208301528760408301528660608301528560808301528460a083015260038410611b5057634e487b7160e01b600052602160045260246000fd5b8360c083015282151560e08301529998505050505050505050565b60008060008060808587031215611b8157600080fd5b611b8a856119b7565b9350611b98602086016119b7565b93969395505050506040820135916060013590565b6020815260008251610140806020850152611bcc610160850183611a8f565b9150602085015160408501526040850151606085015260608501516080850152608085015160a085015260a085015160c085015260c085015160e085015260e0850151610100818187015280870151915050610120611c2e8187018315159052565b90950151151593019290925250919050565b60008060408385031215611c5357600080fd5b611c5c836119b7565b946020939093013593505050565b6000602080830181845280855180835260408601915060408160051b870101925083870160005b82811015611cbf57603f19888603018452611cad858351611a8f565b94509285019290850190600101611c91565b5092979650505050505050565b6020808252825182820181905260009190848201906040850190845b81811015611d0d5783516001600160a01b031683529284019291840191600101611ce8565b50909695505050505050565b6001600160a01b0391909116815260200190565b600060208284031215611d3f57600080fd5b5051919050565b634e487b7160e01b600052601160045260246000fd5b600181815b80851115611d97578160001904821115611d7d57611d7d611d46565b80851615611d8a57918102915b93841c9390800290611d61565b509250929050565b600082611dae575060016104b3565b81611dbb575060006104b3565b8160018114611dd15760028114611ddb57611df7565b60019150506104b3565b60ff841115611dec57611dec611d46565b50506001821b6104b3565b5060208310610133831016604e8410600b8410161715611e1a575081810a6104b3565b611e248383611d5c565b8060001904821115611e3857611e38611d46565b029392505050565b6000610c4c8383611d9f565b808201808211156104b3576104b3611d46565b80820281158282048414176104b3576104b3611d46565b600082611e9357634e487b7160e01b600052601260045260246000fd5b500490565b6001600160a01b0392831681529116602082015260400190565b600080600060608486031215611ec757600080fd5b8351925060208401519150604084015190509250925092565b634e487b7160e01b600052604160045260246000fd5b60405161014081016001600160401b0381118282101715611f1957611f19611ee0565b60405290565b600082601f830112611f3057600080fd5b81516001600160401b0380821115611f4a57611f4a611ee0565b604051601f8301601f19908116603f01168101908282118183101715611f7257611f72611ee0565b81604052838152866020858801011115611f8b57600080fd5b6104e2846020830160208901611a6b565b805180151581146119ce57600080fd5b60008060008060008060c08789031215611fc557600080fd5b86516001600160401b03811115611fdb57600080fd5b611fe789828a01611f1f565b9650506020870151945060408701519350606087015192506080870151915061201260a08801611f9c565b90509295509295509295565b60006020828403121561203057600080fd5b815160038110610c4c57600080fd5b60006020828403121561205157600080fd5b610c4c82611f9c565b818103818111156104b3576104b3611d46565b60006020828403121561207f57600080fd5b81516001600160401b038082111561209657600080fd5b9083019061014082860312156120ab57600080fd5b6120b3611ef6565b8251828111156120c257600080fd5b6120ce87828601611f1f565b8252506020830151602082015260408301516040820152606083015160608201526080830151608082015260a083015160a082015260c083015160c082015260e083015160e08201526101009150612127828401611f9c565b82820152610120915061213b828401611f9c565b91810191909152949350505050565b6000806040838503121561215d57600080fd5b505080516020909101519092909150565b634e487b7160e01b600052603260045260246000fd5b600181811c9082168061219857607f821691505b6020821081036121b857634e487b7160e01b600052602260045260246000fd5b50919050565b6000600182016121d0576121d0611d46565b5060010190565b600080600080608085870312156121ed57600080fd5b84519350602085015192506040850151915061220b60608601611f9c565b90509295919450925056fea2646970667358221220f4d82fa703190c0e853da504df0c9617a781ee75daf1125f8aee8b80e41ae07364736f6c63430008110033",
  "devdoc": {
    "kind": "dev",
    "methods": {
      "getUserGlobalData(address)": {
        "details": "get user data accross all pools"
      }
    },
    "version": 1
  },
  "userdoc": {
    "kind": "user",
    "methods": {},
    "version": 1
  },
  "storageLayout": {
    "storage": [],
    "types": null
  }
}