{
  "address": "0xDf951d2061b12922BFbF22cb17B17f3b39183570",
  "abi": [
    {
      "inputs": [
        {
          "internalType": "address",
          "name": "_user",
          "type": "address"
        }
      ],
      "name": "calculateAvailableBorrowsETH",
      "outputs": [
        {
          "internalType": "uint256",
          "name": "",
          "type": "uint256"
        }
      ],
      "stateMutability": "view",
      "type": "function"
    },
    {
      "inputs": [
        {
          "internalType": "address",
          "name": "_pool",
          "type": "address"
        },
        {
          "internalType": "uint256",
          "name": "_amount",
          "type": "uint256"
        },
        {
          "internalType": "uint256",
          "name": "_fee",
          "type": "uint256"
        },
        {
          "internalType": "uint256",
          "name": "_userCurrentBorrowBalanceETH",
          "type": "uint256"
        },
        {
          "internalType": "uint256",
          "name": "_userCurrentFeesETH",
          "type": "uint256"
        },
        {
          "internalType": "uint256",
          "name": "_userCurrentLTV",
          "type": "uint256"
        }
      ],
      "name": "calculateCollateralNeededInETH",
      "outputs": [
        {
          "internalType": "uint256",
          "name": "collateralNeededInETH",
          "type": "uint256"
        }
      ],
      "stateMutability": "view",
      "type": "function"
    },
    {
      "inputs": [
        {
          "internalType": "address",
          "name": "_user",
          "type": "address"
        }
      ],
      "name": "getUserGlobalData",
      "outputs": [
        {
          "internalType": "uint256",
          "name": "totalLiquidityBalanceETH",
          "type": "uint256"
        },
        {
          "internalType": "uint256",
          "name": "totalCollateralBalanceETH",
          "type": "uint256"
        },
        {
          "internalType": "uint256",
          "name": "totalBorrowBalanceETH",
          "type": "uint256"
        },
        {
          "internalType": "uint256",
          "name": "totalFeesETH",
          "type": "uint256"
        },
        {
          "internalType": "uint256",
          "name": "currentLTV",
          "type": "uint256"
        },
        {
          "internalType": "uint256",
          "name": "currentLiquidationThreshold",
          "type": "uint256"
        },
        {
          "internalType": "uint256",
          "name": "healthFactor",
          "type": "uint256"
        },
        {
          "internalType": "bool",
          "name": "healthFactorBelowThreshold",
          "type": "bool"
        }
      ],
      "stateMutability": "view",
      "type": "function"
    },
    {
      "inputs": [
        {
          "internalType": "address",
          "name": "_pool",
          "type": "address"
        },
        {
          "internalType": "address",
          "name": "_user",
          "type": "address"
        }
      ],
      "name": "getUserPoolData",
      "outputs": [
        {
          "internalType": "uint256",
          "name": "currentBorrowBalance",
          "type": "uint256"
        },
        {
          "internalType": "uint256",
          "name": "principalBorrowBalance",
          "type": "uint256"
        },
        {
          "internalType": "uint256",
          "name": "liquidityRate",
          "type": "uint256"
        },
        {
          "internalType": "uint256",
          "name": "originationFee",
          "type": "uint256"
        },
        {
          "internalType": "uint256",
          "name": "variableBorrowIndex",
          "type": "uint256"
        },
        {
          "internalType": "uint256",
          "name": "lastUpdatedTimestamp",
          "type": "uint256"
        },
        {
          "internalType": "enum LibFacet.InterestRateMode",
          "name": "borrowRateMode",
          "type": "uint8"
        },
        {
          "internalType": "bool",
          "name": "usageAsCollateralEnabled",
          "type": "bool"
        }
      ],
      "stateMutability": "view",
      "type": "function"
    }
  ],
  "transactionHash": "0x30138116a074a1e0b372f883fe49c478578cbd7d08ad63f678ea5ae4bdca4618",
  "args": [],
  "numDeployments": 1,
  "solcInputHash": "f34fdd77d894a25bea3b7e8de0168cb3",
  "bytecode": "0x608060405234801561001057600080fd5b50610f7e806100206000396000f3fe608060405234801561001057600080fd5b506004361061004c5760003560e01c806312737c3314610051578063257fd1af14610077578063491db4a21461008a578063e1fa02ba146100b1575b600080fd5b61006461005f366004610bb0565b610101565b6040519081526020015b60405180910390f35b610064610085366004610bfa565b61024b565b61009d610098366004610c1c565b61027e565b60405161006e989796959493929190610c4f565b6100c46100bf366004610bfa565b6105bc565b604080519889526020890197909752958701949094526060860192909252608085015260a084015260c0830152151560e08201526101000161006e565b60008061010c610a2b565b60405163d79357fb60e01b8152909150600090309063d79357fb90610135908c90600401610cb2565b602060405180830381865afa158015610152573d6000803e3d6000fd5b505050506040513d601f19601f820116820180604052508101906101769190610cc6565b9050600061018582600a610ddb565b61018f898b610de7565b60405163b3596f0760e01b81526001600160a01b0386169063b3596f07906101bb908f90600401610cb2565b602060405180830381865afa1580156101d8573d6000803e3d6000fd5b505050506040513d601f19601f820116820180604052508101906101fc9190610cc6565b6102069190610dfa565b6102109190610e11565b9050848161021e888a610de7565b6102289190610de7565b610233906064610dfa565b61023d9190610e11565b9a9950505050505050505050565b600080600080600061025c866105bc565b50505094509450945094505061027484848484610a59565b9695505050505050565b6000806000806000806000806000309050806001600160a01b0316639fb8afcd8c8c6040518363ffffffff1660e01b81526004016102bd929190610e33565b606060405180830381865afa1580156102da573d6000803e3d6000fd5b505050506040513d601f19601f820116820180604052508101906102fe9190610e4d565b50604051631ca19f1960e01b8152909a509098506001600160a01b03821690631ca19f1990610333908e908e90600401610e33565b602060405180830381865afa158015610350573d6000803e3d6000fd5b505050506040513d601f19601f820116820180604052508101906103749190610e7b565b6040516338c06fbf60e21b81529093506001600160a01b0382169063e301befc906103a3908e90600401610cb2565b602060405180830381865afa1580156103c0573d6000803e3d6000fd5b505050506040513d601f19601f820116820180604052508101906103e49190610cc6565b604051633faacc6b60e21b81529097506001600160a01b0382169063feab31ac90610415908e908e90600401610e33565b602060405180830381865afa158015610432573d6000803e3d6000fd5b505050506040513d601f19601f820116820180604052508101906104569190610cc6565b6040516359e7d6e560e01b81529096506001600160a01b038216906359e7d6e590610487908e908e90600401610e33565b602060405180830381865afa1580156104a4573d6000803e3d6000fd5b505050506040513d601f19601f820116820180604052508101906104c89190610cc6565b604051632da1297d60e01b81529095506001600160a01b03821690632da1297d906104f9908e908e90600401610e33565b602060405180830381865afa158015610516573d6000803e3d6000fd5b505050506040513d601f19601f8201168201806040525081019061053a9190610cc6565b6040516328ff386160e11b81529094506001600160a01b038216906351fe70c29061056b908e908e90600401610e33565b602060405180830381865afa158015610588573d6000803e3d6000fd5b505050506040513d601f19601f820116820180604052508101906105ac9190610eac565b9150509295985092959890939650565b6000806000806000806000806106296040518061016001604052806000815260200160008152602001600081526020016000815260200160008152602001600081526020016000815260200160008152602001600081526020016000151581526020016000151581525090565b3060007f66cfe6d1341bbca11619797516c7fbf0624d144c78b9a40a4a3b4fb518fc11b66001018054806020026020016040519081016040528092919081815260200182805480156106a457602002820191906000526020600020905b81546001600160a01b03168152600190910190602001808311610686575b5050505050905060005b81518110156109cb57826001600160a01b03166319aafc588383815181106106d8576106d8610ec7565b60200260200101518f6040518363ffffffff1660e01b81526004016106fe929190610e33565b608060405180830381865afa15801561071b573d6000803e3d6000fd5b505050506040513d601f19601f8201168201806040525081019061073f9190610edd565b151561012088015260408701526020860181905290855215801561076257508351155b6109b957826001600160a01b0316636f44bb6983838151811061078757610787610ec7565b60200260200101516040518263ffffffff1660e01b81526004016107ab9190610cb2565b608060405180830381865afa1580156107c8573d6000803e3d6000fd5b505050506040513d601f19601f820116820180604052508101906107ec9190610edd565b151561014088015260a087015260808601526060850181905261081090600a610ddb565b60c085015261081d610a2b565b6001600160a01b031663b3596f0783838151811061083d5761083d610ec7565b60200260200101516040518263ffffffff1660e01b81526004016108619190610cb2565b602060405180830381865afa15801561087e573d6000803e3d6000fd5b505050506040513d601f19601f820116820180604052508101906108a29190610cc6565b60e08501528351156109505760c0840151845160e08601516108c49190610dfa565b6108ce9190610e11565b61010085018190526108e0908d610de7565b9b5083610140015180156108f657508361012001515b156109505761010084015161090b908c610de7565b9a5083608001518461010001516109229190610dfa565b61092c9089610de7565b97508360a001518461010001516109439190610dfa565b61094d9088610de7565b96505b6020840151156109b9578360c0015184602001518560e001516109739190610dfa565b61097d9190610e11565b610987908b610de7565b99508360c001518460e0015185604001516109a29190610dfa565b6109ac9190610e11565b6109b6908a610de7565b98505b806109c381610f1c565b9150506106ae565b5060008a116109db5760006109e5565b6109e58a88610e11565b965060008a116109f6576000610a00565b610a008a87610e11565b9550610a0e8a8a8a89610b18565b9450670de0b6b3a764000085109350505050919395975091939597565b7fff5923912191a1cc1ce52c1e63600d3ff20a63ae0f4211e3199b7ba72a991b5d546001600160a01b031690565b6000806064610a688488610dfa565b610a729190610e11565b9050848111610a85576000915050610b10565b610a8f8486610de7565b610a999082610f35565b60405163249bbe9160e01b815260048101829052909150600090309063249bbe9190602401602060405180830381865afa158015610adb573d6000803e3d6000fd5b505050506040513d601f19601f82011682018060405250810190610aff9190610cc6565b9050610b0b8183610f35565b925050505b949350505050565b600083600003610b2b5750600019610b10565b610b54610b388486610de7565b6064610b448589610dfa565b610b4e9190610e11565b90610b5d565b95945050505050565b60008115670de0b6b3a764000060028404190484111715610b7d57600080fd5b50670de0b6b3a76400009190910260028204010490565b80356001600160a01b0381168114610bab57600080fd5b919050565b60008060008060008060c08789031215610bc957600080fd5b610bd287610b94565b9860208801359850604088013597606081013597506080810135965060a00135945092505050565b600060208284031215610c0c57600080fd5b610c1582610b94565b9392505050565b60008060408385031215610c2f57600080fd5b610c3883610b94565b9150610c4660208401610b94565b90509250929050565b6000610100820190508982528860208301528760408301528660608301528560808301528460a083015260038410610c9757634e487b7160e01b600052602160045260246000fd5b8360c083015282151560e08301529998505050505050505050565b6001600160a01b0391909116815260200190565b600060208284031215610cd857600080fd5b5051919050565b634e487b7160e01b600052601160045260246000fd5b600181815b80851115610d30578160001904821115610d1657610d16610cdf565b80851615610d2357918102915b93841c9390800290610cfa565b509250929050565b600082610d4757506001610dd5565b81610d5457506000610dd5565b8160018114610d6a5760028114610d7457610d90565b6001915050610dd5565b60ff841115610d8557610d85610cdf565b50506001821b610dd5565b5060208310610133831016604e8410600b8410161715610db3575081810a610dd5565b610dbd8383610cf5565b8060001904821115610dd157610dd1610cdf565b0290505b92915050565b6000610c158383610d38565b80820180821115610dd557610dd5610cdf565b8082028115828204841417610dd557610dd5610cdf565b600082610e2e57634e487b7160e01b600052601260045260246000fd5b500490565b6001600160a01b0392831681529116602082015260400190565b600080600060608486031215610e6257600080fd5b8351925060208401519150604084015190509250925092565b600060208284031215610e8d57600080fd5b815160038110610c1557600080fd5b80518015158114610bab57600080fd5b600060208284031215610ebe57600080fd5b610c1582610e9c565b634e487b7160e01b600052603260045260246000fd5b60008060008060808587031215610ef357600080fd5b845193506020850151925060408501519150610f1160608601610e9c565b905092959194509250565b600060018201610f2e57610f2e610cdf565b5060010190565b81810381811115610dd557610dd5610cdf56fea2646970667358221220d153a1f39a1aadaf925599eec1b8ba659acd43830fe8cfd23359b441d0b34edc64736f6c63430008110033",
  "devdoc": {
    "kind": "dev",
    "methods": {
      "getUserGlobalData(address)": {
        "details": "get user data accross all pools"
      }
    },
    "version": 1
  },
  "userdoc": {
    "kind": "user",
    "methods": {},
    "version": 1
  },
  "storageLayout": {
    "storage": [],
    "types": null
  }
}