{
  "address": "0x7Ce73F8f636C6bD3357A0A8a59e0ab6462C955B0",
  "abi": [
    {
      "inputs": [
        {
          "internalType": "uint256",
          "name": "_amount",
          "type": "uint256"
        }
      ],
      "name": "calculateLoanOriginationFee",
      "outputs": [
        {
          "internalType": "uint256",
          "name": "",
          "type": "uint256"
        }
      ],
      "stateMutability": "pure",
      "type": "function"
    }
  ],
  "transactionHash": "0x984076331e232a9d30f351678b2841f51a0f7577541ca320f3c85daac7abfda4",
  "args": [],
  "numDeployments": 1,
  "solcInputHash": "8fe2f0b530f633b7011d60afd178f914",
  "bytecode": "0x608060405234801561001057600080fd5b5060ea8061001f6000396000f3fe6080604052348015600f57600080fd5b506004361060285760003560e01c8063249bbe9114602d575b600080fd5b603c6038366004609c565b604e565b60405190815260200160405180910390f35b6000605f826608e1bc9bf040006065565b92915050565b600081156706f05b59d3b200001983900484111517608257600080fd5b50670de0b6b3a764000091026706f05b59d3b20000010490565b60006020828403121560ad57600080fd5b503591905056fea26469706673582212203a485cb0e0e36d55ed3d7f79b5b63a526f686cb4b8124102ce39fd837e166ab364736f6c63430008110033",
  "devdoc": {
    "kind": "dev",
    "methods": {},
    "version": 1
  },
  "userdoc": {
    "kind": "user",
    "methods": {},
    "version": 1
  },
  "storageLayout": {
    "storage": [],
    "types": null
  }
}