{
  "address": "0xD42912755319665397FF090fBB63B1a31aE87Cee",
  "abi": [
    {
      "inputs": [
        {
          "internalType": "address",
          "name": "_pool",
          "type": "address"
        }
      ],
      "name": "getPoolConfiguration",
      "outputs": [
        {
          "internalType": "uint256",
          "name": "reserveDecimals",
          "type": "uint256"
        },
        {
          "internalType": "uint256",
          "name": "baseLTV",
          "type": "uint256"
        },
        {
          "internalType": "uint256",
          "name": "liquidationTHreshold",
          "type": "uint256"
        },
        {
          "internalType": "bool",
          "name": "usageAsCollateralEnabled",
          "type": "bool"
        }
      ],
      "stateMutability": "view",
      "type": "function"
    },
    {
      "inputs": [],
      "name": "getPools",
      "outputs": [
        {
          "internalType": "address[]",
          "name": "",
          "type": "address[]"
        }
      ],
      "stateMutability": "view",
      "type": "function"
    },
    {
      "inputs": [
        {
          "internalType": "address",
          "name": "_pool",
          "type": "address"
        },
        {
          "internalType": "address",
          "name": "_user",
          "type": "address"
        }
      ],
      "name": "getUserPoolData",
      "outputs": [
        {
          "internalType": "uint256",
          "name": "compoundedLiquidityBalance",
          "type": "uint256"
        },
        {
          "internalType": "uint256",
          "name": "compoundedBorrowBalance",
          "type": "uint256"
        },
        {
          "internalType": "uint256",
          "name": "originationFee",
          "type": "uint256"
        },
        {
          "internalType": "bool",
          "name": "userUsesPoolAsCollateral",
          "type": "bool"
        }
      ],
      "stateMutability": "view",
      "type": "function"
    },
    {
      "inputs": [
        {
          "internalType": "address",
          "name": "_pool",
          "type": "address"
        },
        {
          "internalType": "address",
          "name": "_user",
          "type": "address"
        },
        {
          "internalType": "uint256",
          "name": "_amount",
          "type": "uint256"
        }
      ],
      "name": "updateStateOnDeposit",
      "outputs": [],
      "stateMutability": "nonpayable",
      "type": "function"
    }
  ],
  "transactionHash": "0x6d6ecf6edeabdc9e1b8435e604a237b2cfda4480abaf6b51877269027128dbfa",
  "args": [],
  "numDeployments": 1,
  "solcInputHash": "92f03726df11eaaf864c8e31d723441e",
  "bytecode": "0x608060405234801561001057600080fd5b506109b2806100206000396000f3fe608060405234801561001057600080fd5b506004361061004c5760003560e01c8063491db4a214610051578063673a2a1f1461008b5780636f44bb69146100a0578063f34662dd146100b3575b600080fd5b61006461005f366004610824565b6100c8565b60408051948552602085019390935291830152151560608201526080015b60405180910390f35b6100936101aa565b6040516100829190610857565b6100646100ae3660046108a4565b610215565b6100c66100c13660046108c6565b610269565b005b60008060008060006100d8610304565b6001600160a01b03808916600090815260209283526040808220928a1682526014830190935291822080546001909101549193509103610144576001600160a01b03871660009081526014909201602052604082206009015490955090935083925060ff1690506101a1565b6001600160a01b03871660009081526014830160205260409020819061016a9084610328565b6001600160a01b03891660009081526014909401602052604090932060068101546009909101549197509295509193505060ff1690505b92959194509250565b60606101b4610304565b60010180548060200260200160405190810160405280929190818152602001828054801561020b57602002820191906000526020600020905b81546001600160a01b031681526001909101906020018083116101ed575b5050505050905090565b6000806000806000610225610304565b6001600160a01b0396909616600090815260209690965250506040909320805460078201546009830154600c909301549196909550919350610100900460ff169150565b6000610273610304565b6001600160a01b0385166000908152602091909152604090209050610297816103f0565b6102a08161040e565b6102ac8483600061046c565b818160010160008282546102c09190610918565b90915550506001600160a01b0383166000908152601482016020526040812080548492906102ef908490610918565b909155506102fe9050816103f0565b50505050565b7f66cfe6d1341bbca11619797516c7fbf0624d144c78b9a40a4a3b4fb518fc11b690565b6000826001015460000361033e575060006103ea565b600061034d84600101546104e6565b9050600080600086600a0160010154116103a25761039f8660020154610399876006015461039389600d0160040154610384610304565b60020154428c600b0154610501565b90610543565b90610584565b90505b6103b46103af8483610543565b6105c1565b9150856001015482036103e557428660080154146103e5576001808701546103db91610918565b93505050506103ea565b509150505b92915050565b6103fd81600401546105e4565b601181015461040b906105e4565b50565b60028101541561040b57610435816004015461039383600d016006015484600b0154610629565b600482015560068101546011820154610464919061039390610455610304565b600201544286600b0154610501565b600682015550565b6000610476610304565b6001600160a01b03851660009081526020919091526040902060018101549091506104d09083906104a8908690610918565b6104b2919061092b565b6003830154600e840154600f8501546010860154600d87015461066c565b6013830155601182015542600b90910155505050565b633b9aca0081810290810482146104fc57600080fd5b919050565b60008061050e8686610584565b905061052f61051d848661092b565b676765c793fa10079d601b1b90610713565b6105399082610918565b9695505050505050565b60008115676765c793fa10079d601a1b198390048411151761056457600080fd5b50676765c793fa10079d601b1b9102676765c793fa10079d601a1b010490565b60008115676765c793fa10079d601b1b600284041904841117156105a757600080fd5b50676765c793fa10079d601b1b9190910260028204010490565b633b9aca00808204908206631dcd650081106105de576001820191505b50919050565b61040b816040516024016105fa91815260200190565b60408051601f198184030181529190526020810180516001600160e01b031663f82c50f160e01b17905261078b565b6000806106424284610639610304565b600201546107ac565b9050676765c793fa10079d601b1b61065a8583610543565b6106649190610918565b949350505050565b60008086818915801561067d575081155b6106905761068b8a83610954565b610693565b60005b9050848111156106df5760006106b76106ad87600161092b565b610399888561092b565b90506106c38882610543565b6106cd8a89610918565b6106d79190610918565b9450506106fa565b6106ed886103938388610584565b6106f79087610918565b93505b61070489856107cc565b92505050965096945050505050565b6000610720600283610968565b60000361073857676765c793fa10079d601b1b61073a565b825b9050610747600283610954565b91505b81156103ea5761075a8384610543565b9250610767600283610968565b15610779576107768184610543565b90505b610784600283610954565b915061074a565b80516a636f6e736f6c652e6c6f67602083016000808483855afa5050505050565b60006106646107ba836104e6565b6103996107c7868861092b565b6104e6565b6000828082036107e05760009150506103ea565b60006107ef84610399876104e6565b90506108046107fd836104e6565b8290610584565b95945050505050565b80356001600160a01b03811681146104fc57600080fd5b6000806040838503121561083757600080fd5b6108408361080d565b915061084e6020840161080d565b90509250929050565b6020808252825182820181905260009190848201906040850190845b818110156108985783516001600160a01b031683529284019291840191600101610873565b50909695505050505050565b6000602082840312156108b657600080fd5b6108bf8261080d565b9392505050565b6000806000606084860312156108db57600080fd5b6108e48461080d565b92506108f26020850161080d565b9150604084013590509250925092565b634e487b7160e01b600052601160045260246000fd5b808201808211156103ea576103ea610902565b818103818111156103ea576103ea610902565b634e487b7160e01b600052601260045260246000fd5b6000826109635761096361093e565b500490565b6000826109775761097761093e565b50069056fea2646970667358221220c982740536361c52fd8b446f80ced690e5a601fc25b72caff803e40d8eb1380a64736f6c63430008110033",
  "devdoc": {
    "kind": "dev",
    "methods": {},
    "version": 1
  },
  "userdoc": {
    "kind": "user",
    "methods": {},
    "version": 1
  },
  "storageLayout": {
    "storage": [],
    "types": null
  }
}