{
  "address": "0x1f10F3Ba7ACB61b2F50B9d6DdCf91a6f787C0E82",
  "abi": [
    {
      "inputs": [
        {
          "internalType": "address",
          "name": "_pool",
          "type": "address"
        },
        {
          "internalType": "uint256",
          "name": "_amount",
          "type": "uint256"
        },
        {
          "internalType": "enum LibFacet.InterestRateMode",
          "name": "_rateMode",
          "type": "uint8"
        }
      ],
      "name": "borrow",
      "outputs": [],
      "stateMutability": "nonpayable",
      "type": "function"
    },
    {
      "inputs": [
        {
          "internalType": "address",
          "name": "_pool",
          "type": "address"
        },
        {
          "internalType": "address",
          "name": "_user",
          "type": "address"
        },
        {
          "internalType": "uint256",
          "name": "_amount",
          "type": "uint256"
        }
      ],
      "name": "deposit",
      "outputs": [],
      "stateMutability": "payable",
      "type": "function"
    },
    {
      "inputs": [
        {
          "internalType": "address",
          "name": "_pool",
          "type": "address"
        },
        {
          "internalType": "address",
          "name": "_user",
          "type": "address"
        },
        {
          "internalType": "uint256",
          "name": "_amount",
          "type": "uint256"
        }
      ],
      "name": "redeem",
      "outputs": [],
      "stateMutability": "nonpayable",
      "type": "function"
    },
    {
      "inputs": [
        {
          "internalType": "address",
          "name": "_pool",
          "type": "address"
        },
        {
          "internalType": "uint256",
          "name": "_amount",
          "type": "uint256"
        }
      ],
      "name": "repay",
      "outputs": [],
      "stateMutability": "payable",
      "type": "function"
    }
  ],
  "transactionHash": "0xfd31d8fa3eb52bbc43d50026ddbdb61c865485261feb1415adedfae1bbd43b33",
  "args": [],
  "numDeployments": 1,
  "solcInputHash": "441b63157a0e59203de0aa8c377051b6",
  "bytecode": "0x608060405234801561001057600080fd5b50611201806100206000396000f3fe60806040526004361061003f5760003560e01c80630e6dfcd51461004457806322867d78146100665780638340f54914610079578063b6e82e031461008c575b600080fd5b34801561005057600080fd5b5061006461005f366004610eca565b6100ac565b005b610064610074366004610f06565b610237565b610064610087366004610eca565b6106dc565b34801561009857600080fd5b506100646100a7366004610f30565b610824565b6001600160a01b03831660009081527f66cfe6d1341bbca11619797516c7fbf0624d144c78b9a40a4a3b4fb518fc11b66020526040902060018101543091908311156101485760405162461bcd60e51b815260206004820152603260248201526000805160206111ac83398151915260448201527130b4b630b13632903a37903932b232b2b69760711b60648201526084015b60405180910390fd5b6001600160a01b0384811660009081526017830160205260409081902054905163afcdbea360e01b815287831660048201523360248201526044810186905290851460648201529083169063afcdbea390608401600060405180830381600087803b1580156101b657600080fd5b505af11580156101ca573d6000803e3d6000fd5b505060405163fa93b2a560e01b81526001600160a01b038516925063fa93b2a591506101fe90889088908890600401610f74565b600060405180830381600087803b15801561021857600080fd5b505af115801561022c573d6000803e3d6000fd5b505050505050505050565b6000309050610286604051806101000160405280600081526020016000815260200160008152602001600015158152602001600081526020016000815260200160008152602001600081525090565b604051639fb8afcd60e01b81526001600160a01b03831690639fb8afcd906102b49087903390600401610f98565b606060405180830381865afa1580156102d1573d6000803e3d6000fd5b505050506040513d601f19601f820116820180604052508101906102f59190610fb2565b604080850191909152602084019190915290825251633faacc6b60e21b81526001600160a01b0383169063feab31ac906103359087903390600401610f98565b602060405180830381865afa158015610352573d6000803e3d6000fd5b505050506040513d601f19601f820116820180604052508101906103769190610fe0565b60e08201526001600160a01b03841661038d610dfc565b546001600160a01b031614606082015260208101516104015760405162461bcd60e51b815260206004820152602a60248201527f546865207573657220646f6573206e746f206861766520616e7920626f72726f6044820152693b903832b73234b7339760b11b606482015260840161013f565b8060e001518160200151610415919061100f565b60808201526060810151158061042f575080608001513410155b6104925760405162461bcd60e51b815260206004820152602e60248201527f496e73756666696369656e74206d73672e76616c75652073656e6420666f722060448201526d3a3432903932b830bcb6b2b73a1760911b606482015260840161013f565b8060e00151816080015111610573576080810151604080830151905163da12d96f60e01b81526001600160a01b0385169263da12d96f926104de92899233926000928390600401611028565b600060405180830381600087803b1580156104f857600080fd5b505af115801561050c573d6000803e3d6000fd5b50505050816001600160a01b0316639a881174826060015161052f576000610535565b82608001515b863385608001516040518563ffffffff1660e01b815260040161055a93929190610f74565b6000604051808303818588803b15801561021857600080fd5b8060e001518160800151610587919061105e565b60a0820181905260e08201516040808401516020850151915163da12d96f60e01b81526001600160a01b0387169463da12d96f946105d0948b9433949091841490600401611028565b600060405180830381600087803b1580156105ea57600080fd5b505af11580156105fe573d6000803e3d6000fd5b5050505060e08101511561068957816001600160a01b0316639a881174826060015161062b576000610631565b8260e001515b86338560e001516040518563ffffffff1660e01b815260040161065693929190610f74565b6000604051808303818588803b15801561066f57600080fd5b505af1158015610683573d6000803e3d6000fd5b50505050505b816001600160a01b031663dd2c99f782606001516106a85760006106b7565b60e08301516106b7903461105e565b86338560a001516040518563ffffffff1660e01b815260040161055a93929190610f74565b6106e4610dfc565b546001600160a01b0384811691161461076d576040516370a0823160e01b815281906001600160a01b038516906370a0823190610725908690600401611071565b602060405180830381865afa158015610742573d6000803e3d6000fd5b505050506040513d601f19601f820116820180604052508101906107669190610fe0565b101561077c565b80826001600160a01b03163110155b6107c65760405162461bcd60e51b815260206004820152601b60248201527a24b739bab33334b1b4b2b73a103a37b5b2b7103130b630b731b29760291b604482015260640161013f565b60405163f34662dd60e01b8152309063f34662dd906107ed90869033908690600401610f74565b600060405180830381600087803b15801561080757600080fd5b505af115801561081b573d6000803e3d6000fd5b50505050505050565b61082c610e20565b60405163a5df1b2960e01b81523090819063a5df1b2990610851908890600401611071565b602060405180830381865afa15801561086e573d6000803e3d6000fd5b505050506040513d601f19601f820116820180604052508101906108929190611095565b6108e95760405162461bcd60e51b815260206004820152602260248201527f506f6f6c206973206e6f7420656e61626c656420666f7220626f72726f77696e604482015261339760f11b606482015260840161013f565b60008360028111156108fd576108fd6110b7565b148061091a57506001836002811115610918576109186110b7565b145b6109725760405162461bcd60e51b815260206004820152602360248201527f496e76616c696420696e7465726573742072617465206d6f64652073656c65636044820152621d195960ea1b606482015260840161013f565b6040516361e9e5c760e11b815284906001600160a01b0383169063c3d3cb8e906109a0908990600401611071565b602060405180830381865afa1580156109bd573d6000803e3d6000fd5b505050506040513d601f19601f820116820180604052508101906109e19190610fe0565b1015610a3a5760405162461bcd60e51b815260206004820152603460248201526000805160206111ac83398151915260448201527330b4b630b136329034b7103a3432903837b7b61760611b606482015260840161013f565b6040516370fd015d60e11b8152309063e1fa02ba90610a5d903390600401611071565b61010060405180830381865afa158015610a7b573d6000803e3d6000fd5b505050506040513d601f19601f82011682018060405250810190610a9f91906110cd565b15156101e08a0152506040880152602087015261010086015260e085015260c0840181905215159050610b135760405162461bcd60e51b815260206004820152601c60248201527b2a34329031b7b63630ba32b930b6103130b630b731b29034b990181760211b604482015260640161013f565b816101e0015115610b765760405162461bcd60e51b815260206004820152602760248201527f54686520626f72726f7765722063616e20616c7265616479206265206c69717560448201526634b230ba32b21760c91b606482015260840161013f565b60405163249bbe9160e01b815260048101859052309063249bbe9190602401602060405180830381865afa158015610bb2573d6000803e3d6000fd5b505050506040513d601f19601f82011682018060405250810190610bd69190610fe0565b60608301819052610c345760405162461bcd60e51b815260206004820152602260248201527f54686520616d6f756e7420746f20626f72726f7720697320746f6f20736d616c604482015261361760f11b606482015260840161013f565b606082015160e083015161010084015160208501516040516312737c3360e01b81526001600160a01b038a1660048201526024810189905260448101949094526064840192909252608483015260a482015230906312737c339060c401602060405180830381865afa158015610cae573d6000803e3d6000fd5b505050506040513d601f19601f82011682018060405250810190610cd29190610fe0565b60a0830181905260c08301511015610d435760405162461bcd60e51b815260206004820152602e60248201527f496e73756666696369656e7420636f6c6c61746572616c20746f20636f76657260448201526d1030903732bb903137b93937bb9760911b606482015260840161013f565b60608201516101c0830151604051630deb1bf960e21b81526001600160a01b038416926337ac6fe492610d7e928a9233928b92600401611133565b60408051808303816000875af1158015610d9c573d6000803e3d6000fd5b505050506040513d601f19601f82011682018060405250810190610dc09190611187565b6101208401526101a083015260405163fa93b2a560e01b81526001600160a01b0382169063fa93b2a5906101fe90889033908990600401610f74565b7fff5923912191a1cc1ce52c1e63600d3ff20a63ae0f4211e3199b7ba72a991b5a90565b604051806102000160405280600081526020016000815260200160008152602001600081526020016000815260200160008152602001600081526020016000815260200160008152602001600081526020016000815260200160008152602001600081526020016000815260200160006002811115610ea157610ea16110b7565b8152600060209091015290565b80356001600160a01b0381168114610ec557600080fd5b919050565b600080600060608486031215610edf57600080fd5b610ee884610eae565b9250610ef660208501610eae565b9150604084013590509250925092565b60008060408385031215610f1957600080fd5b610f2283610eae565b946020939093013593505050565b600080600060608486031215610f4557600080fd5b610f4e84610eae565b925060208401359150604084013560038110610f6957600080fd5b809150509250925092565b6001600160a01b039384168152919092166020820152604081019190915260600190565b6001600160a01b0392831681529116602082015260400190565b600080600060608486031215610fc757600080fd5b8351925060208401519150604084015190509250925092565b600060208284031215610ff257600080fd5b5051919050565b634e487b7160e01b600052601160045260246000fd5b8082018082111561102257611022610ff9565b92915050565b6001600160a01b03968716815294909516602085015260408401929092526060830152608082015290151560a082015260c00190565b8181038181111561102257611022610ff9565b6001600160a01b0391909116815260200190565b80518015158114610ec557600080fd5b6000602082840312156110a757600080fd5b6110b082611085565b9392505050565b634e487b7160e01b600052602160045260246000fd5b600080600080600080600080610100898b0312156110ea57600080fd5b885197506020890151965060408901519550606089015194506080890151935060a0890151925060c0890151915061112460e08a01611085565b90509295985092959890939650565b6001600160a01b03868116825285166020820152604081018490526060810183905260a081016003831061117757634e487b7160e01b600052602160045260246000fd5b8260808301529695505050505050565b6000806040838503121561119a57600080fd5b50508051602090910151909290915056fe5468657265206973206e6f7420656e6f756768206c6971756964697479206176a2646970667358221220cb91ea52c2166b34d4ca3f659aba6d0d20ff821f9f6647f84bf6d95b2feee1fd64736f6c63430008110033",
  "devdoc": {
    "kind": "dev",
    "methods": {},
    "version": 1
  },
  "userdoc": {
    "kind": "user",
    "methods": {},
    "version": 1
  },
  "storageLayout": {
    "storage": [],
    "types": null
  }
}