{
  "address": "0x809d550fca64d94Bd9F66E60752A544199cfAC3D",
  "abi": [
    {
      "inputs": [
        {
          "internalType": "address",
          "name": "_pool",
          "type": "address"
        },
        {
          "internalType": "uint256",
          "name": "_amount",
          "type": "uint256"
        },
        {
          "internalType": "enum LibFacet.InterestRateMode",
          "name": "_rateMode",
          "type": "uint8"
        }
      ],
      "name": "borrow",
      "outputs": [],
      "stateMutability": "nonpayable",
      "type": "function"
    },
    {
      "inputs": [
        {
          "internalType": "address",
          "name": "_pool",
          "type": "address"
        },
        {
          "internalType": "uint256",
          "name": "_amount",
          "type": "uint256"
        },
        {
          "internalType": "bool",
          "name": "_useAsCollateral",
          "type": "bool"
        }
      ],
      "name": "deposit",
      "outputs": [],
      "stateMutability": "payable",
      "type": "function"
    },
    {
      "inputs": [
        {
          "internalType": "address",
          "name": "_pool",
          "type": "address"
        },
        {
          "internalType": "address",
          "name": "_collateral",
          "type": "address"
        },
        {
          "internalType": "address",
          "name": "_userToLiquidate",
          "type": "address"
        },
        {
          "internalType": "uint256",
          "name": "_purchaseAmount",
          "type": "uint256"
        }
      ],
      "name": "liquidationCall",
      "outputs": [],
      "stateMutability": "payable",
      "type": "function"
    },
    {
      "inputs": [
        {
          "internalType": "address",
          "name": "_pool",
          "type": "address"
        },
        {
          "internalType": "uint256",
          "name": "_amount",
          "type": "uint256"
        }
      ],
      "name": "redeem",
      "outputs": [],
      "stateMutability": "nonpayable",
      "type": "function"
    },
    {
      "inputs": [
        {
          "internalType": "address",
          "name": "_pool",
          "type": "address"
        },
        {
          "internalType": "uint256",
          "name": "_amount",
          "type": "uint256"
        }
      ],
      "name": "repay",
      "outputs": [],
      "stateMutability": "payable",
      "type": "function"
    },
    {
      "inputs": [
        {
          "internalType": "address",
          "name": "_pool",
          "type": "address"
        },
        {
          "internalType": "bool",
          "name": "_useAsCollateral",
          "type": "bool"
        }
      ],
      "name": "setUserUsePoolAsCollateral",
      "outputs": [],
      "stateMutability": "nonpayable",
      "type": "function"
    }
  ],
  "transactionHash": "0x49ac0cb41c80d26eec4cbfb05dc27e1eb19026f11c185e3053030778c8150d0e",
  "args": [],
  "numDeployments": 1,
  "solcInputHash": "827d2890bced3c86a2ad1b35f517b9ae",
  "bytecode": "0x608060405234801561001057600080fd5b50611c33806100206000396000f3fe6080604052600436106100555760003560e01c80631e9a69501461005a57806322867d781461007c5780633edd11281461008f578063824bbb04146100a25780638f7c2510146100c2578063b6e82e03146100d5575b600080fd5b34801561006657600080fd5b5061007a610075366004611806565b6100f5565b005b61007a61008a366004611806565b6103d1565b61007a61009d366004611841565b6108bf565b3480156100ae57600080fd5b5061007a6100bd366004611881565b610a2d565b61007a6100d03660046118b8565b610b88565b3480156100e157600080fd5b5061007a6100f0366004611903565b611162565b6040516361e9e5c760e11b815230908290829063c3d3cb8e9061011c90879060040161193c565b602060405180830381865afa158015610139573d6000803e3d6000fd5b505050506040513d601f19601f8201168201806040525081019061015d9190611950565b10156101b95760405162461bcd60e51b81526020600482015260326024820152600080516020611bde83398151915260448201527130b4b630b13632903a37903932b232b2b69760711b60648201526084015b60405180910390fd5b60405163a99901a360e01b81526001600160a01b0382169063a99901a3906101e79086903390600401611969565b602060405180830381865afa158015610204573d6000803e3d6000fd5b505050506040513d601f19601f820116820180604052508101906102289190611950565b8211156102965760405162461bcd60e51b815260206004820152603660248201527f557365722063616e6e6f742072656465656d206d6f7265207468616e207468656044820152751030b1b1bab6bab630ba32b21034b73a32b932b9ba1760511b60648201526084016101b0565b806001600160a01b031663afcdbea3843385856001600160a01b031663a99901a389336040518363ffffffff1660e01b81526004016102d6929190611969565b602060405180830381865afa1580156102f3573d6000803e3d6000fd5b505050506040513d601f19601f820116820180604052508101906103179190611950565b87146040518563ffffffff1660e01b81526004016103389493929190611983565b600060405180830381600087803b15801561035257600080fd5b505af1158015610366573d6000803e3d6000fd5b505060405163fa93b2a560e01b81526001600160a01b038416925063fa93b2a5915061039a908690339087906004016119ac565b600060405180830381600087803b1580156103b457600080fd5b505af11580156103c8573d6000803e3d6000fd5b50505050505050565b6000309050610420604051806101000160405280600081526020016000815260200160008152602001600015158152602001600081526020016000815260200160008152602001600081525090565b604051639fb8afcd60e01b81526001600160a01b03831690639fb8afcd9061044e9087903390600401611969565b606060405180830381865afa15801561046b573d6000803e3d6000fd5b505050506040513d601f19601f8201168201806040525081019061048f91906119d0565b604080850191909152602084019190915290825251633faacc6b60e21b81526001600160a01b0383169063feab31ac906104cf9087903390600401611969565b602060405180830381865afa1580156104ec573d6000803e3d6000fd5b505050506040513d601f19601f820116820180604052508101906105109190611950565b60e08201526001600160a01b038416610527611738565b546001600160a01b0316146060820152602081015161059b5760405162461bcd60e51b815260206004820152602a60248201527f546865207573657220646f6573206e6f74206861766520616e7920626f72726f6044820152693b903832b73234b7339760b11b60648201526084016101b0565b8060e0015181602001516105af9190611a14565b608082018190528310156105c557608081018390525b806060015115806105da575080608001513410155b61063d5760405162461bcd60e51b815260206004820152602e60248201527f496e73756666696369656e74206d73672e76616c75652073656e6420666f722060448201526d3a3432903932b830bcb6b2b73a1760911b60648201526084016101b0565b8060e0015181608001511161073d576080810151604080830151905163da12d96f60e01b81526001600160a01b0385169263da12d96f9261068992899233926000928390600401611a2d565b600060405180830381600087803b1580156106a357600080fd5b505af11580156106b7573d6000803e3d6000fd5b50505050816001600160a01b0316639a88117482606001516106da5760006106e0565b82608001515b863385608001516040518563ffffffff1660e01b8152600401610705939291906119ac565b6000604051808303818588803b15801561071e57600080fd5b505af1158015610732573d6000803e3d6000fd5b505050505050505050565b8060e0015181608001516107519190611a63565b60a0820181905260e08201516040808401516020850151915163da12d96f60e01b81526001600160a01b0387169463da12d96f9461079a948b9433949091841490600401611a2d565b600060405180830381600087803b1580156107b457600080fd5b505af11580156107c8573d6000803e3d6000fd5b5050505060e08101511561085357816001600160a01b0316639a88117482606001516107f55760006107fb565b8260e001515b86338560e001516040518563ffffffff1660e01b8152600401610820939291906119ac565b6000604051808303818588803b15801561083957600080fd5b505af115801561084d573d6000803e3d6000fd5b50505050505b60a081015160405163dd2c99f760e01b81526001600160a01b0384169163dd2c99f7916108879188913391906004016119ac565b600060405180830381600087803b1580156108a157600080fd5b505af11580156108b5573d6000803e3d6000fd5b5050505050505050565b6108c7611738565b546001600160a01b03848116911614610950576040516370a0823160e01b815282906001600160a01b038516906370a082319061090890339060040161193c565b602060405180830381865afa158015610925573d6000803e3d6000fd5b505050506040513d601f19601f820116820180604052508101906109499190611950565b1015610956565b33318211155b6109a05760405162461bcd60e51b815260206004820152601b60248201527a24b739bab33334b1b4b2b73a103a37b5b2b7103130b630b731b29760291b60448201526064016101b0565b604051632f35bfe960e21b81523090819063bcd6ffa4906109cb908790339088908890600401611983565b600060405180830381600087803b1580156109e557600080fd5b505af11580156109f9573d6000803e3d6000fd5b505060405163dd2c99f760e01b81526001600160a01b038416925063dd2c99f79150610887908790339088906004016119ac565b6001600160a01b03821660009081527f66cfe6d1341bbca11619797516c7fbf0624d144c78b9a40a4a3b4fb518fc11b6602090815260408083203384526018810190925290912054610ad55760405162461bcd60e51b815260206004820152602b60248201527f5573657220646f6573206e6f74206861766520616e79206c697175696469747960448201526a103232b837b9b4ba32b21760a91b60648201526084016101b0565b33600090815260188201602052604090206009015460ff1615610b4e5760405162461bcd60e51b815260206004820152602b60248201527f55736572206465706f73697420697320616c726561647920757365642061732060448201526a31b7b63630ba32b930b61760a91b60648201526084016101b0565b604051630304fd0d60e31b81526001600160a01b038416600482015233602482015282151560448201523090631827e8689060640161039a565b6000309050610bec604051806101600160405280600081526020016000815260200160008152602001600081526020016000815260200160008152602001600081526020016000815260200160008152602001600081526020016000151581525090565b60405163f2ba567760e01b81526001600160a01b0383169063f2ba567790610c1a9088908890600401611969565b602060405180830381865afa158015610c37573d6000803e3d6000fd5b505050506040513d601f19601f82011682018060405250810190610c5b9190611950565b808252610ccc5760405162461bcd60e51b815260206004820152603960248201527f5573657220686173206e6f742070726f766964656420636f6c6c61746572616c6044820152781034b7103a3432903232b9b4b932b21031bab93932b731bc9760391b60648201526084016101b0565b604051639fb8afcd60e01b81526001600160a01b03831690639fb8afcd90610cfa9089908890600401611969565b606060405180830381865afa158015610d17573d6000803e3d6000fd5b505050506040513d601f19601f82011682018060405250810190610d3b91906119d0565b60408401526020830181905215159050610db35760405162461bcd60e51b815260206004820152603360248201527f5573657220686173206e6f7420676f7474656e2061206c6f616e20696e20746860448201527234b9903837b7b613b99031bab93932b731bc9760691b60648201526084016101b0565b60028160200151610dc49190611a76565b606082018190528311610dd75782610ddd565b80606001515b608082018190528151604051634b1f6d5360e01b81523092634b1f6d5392610e0d928b928b929091600401611a98565b6040805180830381865afa158015610e29573d6000803e3d6000fd5b505050506040513d601f19601f82011682018060405250810190610e4d9190611ac1565b60c0830181905260a0830191909152608082015111610e70578060800151610e76565b8060c001515b6080820152604051633faacc6b60e21b81526001600160a01b0383169063feab31ac90610ea99089908890600401611969565b602060405180830381865afa158015610ec6573d6000803e3d6000fd5b505050506040513d601f19601f82011682018060405250810190610eea9190611950565b60e0820181905215610f805760e081015181513091634b1f6d539188918a91610f14908290611a63565b6040518563ffffffff1660e01b8152600401610f339493929190611a98565b6040805180830381865afa158015610f4f573d6000803e3d6000fd5b505050506040513d601f19601f82011682018060405250810190610f739190611ac1565b6101208301526101008201525b608081015161012082015160a08301516040808501519051634e912db560e01b81526001600160a01b038b811660048301528a8116602483015289811660448301526064820195909552608481019390935260a483019190915260c482015290831690634e912db59060e401600060405180830381600087803b15801561100657600080fd5b505af115801561101a573d6000803e3d6000fd5b50505060a082015160405163fa93b2a560e01b81526001600160a01b038516925063fa93b2a59161105191899133916004016119ac565b600060405180830381600087803b15801561106b57600080fd5b505af115801561107f573d6000803e3d6000fd5b505050608082015160405163dd2c99f760e01b81526001600160a01b038516925063dd2c99f7916110b6918a9133916004016119ac565b600060405180830381600087803b1580156110d057600080fd5b505af11580156110e4573d6000803e3d6000fd5b5050505060e08101511561115a576101208101516040516326a2045d60e21b81526001600160a01b03841691639a88117491611127918a913391906004016119ac565b600060405180830381600087803b15801561114157600080fd5b505af1158015611155573d6000803e3d6000fd5b505050505b505050505050565b61116a61175c565b60405163a5df1b2960e01b81523090819063a5df1b299061118f90889060040161193c565b602060405180830381865afa1580156111ac573d6000803e3d6000fd5b505050506040513d601f19601f820116820180604052508101906111d09190611ae5565b6112275760405162461bcd60e51b815260206004820152602260248201527f506f6f6c206973206e6f7420656e61626c656420666f7220626f72726f77696e604482015261339760f11b60648201526084016101b0565b600083600281111561123b5761123b611b09565b14806112585750600183600281111561125657611256611b09565b145b6112b05760405162461bcd60e51b815260206004820152602360248201527f496e76616c696420696e7465726573742072617465206d6f64652073656c65636044820152621d195960ea1b60648201526084016101b0565b6040516361e9e5c760e11b815284906001600160a01b0383169063c3d3cb8e906112de90899060040161193c565b602060405180830381865afa1580156112fb573d6000803e3d6000fd5b505050506040513d601f19601f8201168201806040525081019061131f9190611950565b10156113785760405162461bcd60e51b81526020600482015260346024820152600080516020611bde83398151915260448201527330b4b630b136329034b7103a3432903837b7b61760611b60648201526084016101b0565b6040516370fd015d60e11b8152309063e1fa02ba9061139b90339060040161193c565b61010060405180830381865afa1580156113b9573d6000803e3d6000fd5b505050506040513d601f19601f820116820180604052508101906113dd9190611b1f565b15156101e08a0152506040880152602087015261010086015260e085015260c08401819052151590506114515760405162461bcd60e51b815260206004820152601c60248201527b2a34329031b7b63630ba32b930b6103130b630b731b29034b990181760211b60448201526064016101b0565b816101e00151156114b45760405162461bcd60e51b815260206004820152602760248201527f54686520626f72726f7765722063616e20616c7265616479206265206c69717560448201526634b230ba32b21760c91b60648201526084016101b0565b60405163249bbe9160e01b815260048101859052309063249bbe9190602401602060405180830381865afa1580156114f0573d6000803e3d6000fd5b505050506040513d601f19601f820116820180604052508101906115149190611950565b606083018190526115725760405162461bcd60e51b815260206004820152602260248201527f54686520616d6f756e7420746f20626f72726f7720697320746f6f20736d616c604482015261361760f11b60648201526084016101b0565b606082015160e083015161010084015160208501516040516312737c3360e01b81526001600160a01b038a1660048201526024810189905260448101949094526064840192909252608483015260a482015230906312737c339060c401602060405180830381865afa1580156115ec573d6000803e3d6000fd5b505050506040513d601f19601f820116820180604052508101906116109190611950565b60a0830181905260c083015110156116815760405162461bcd60e51b815260206004820152602e60248201527f496e73756666696369656e7420636f6c6c61746572616c20746f20636f76657260448201526d1030903732bb903137b93937bb9760911b60648201526084016101b0565b60608201516101c0830151604051630deb1bf960e21b81526001600160a01b038416926337ac6fe4926116bc928a9233928b92600401611b89565b600060405180830381600087803b1580156116d657600080fd5b505af11580156116ea573d6000803e3d6000fd5b505060405163fa93b2a560e01b81526001600160a01b038416925063fa93b2a5915061171e908890339089906004016119ac565b600060405180830381600087803b15801561071e57600080fd5b7fff5923912191a1cc1ce52c1e63600d3ff20a63ae0f4211e3199b7ba72a991b5a90565b6040518061020001604052806000815260200160008152602001600081526020016000815260200160008152602001600081526020016000815260200160008152602001600081526020016000815260200160008152602001600081526020016000815260200160008152602001600060028111156117dd576117dd611b09565b8152600060209091015290565b80356001600160a01b038116811461180157600080fd5b919050565b6000806040838503121561181957600080fd5b611822836117ea565b946020939093013593505050565b801515811461183e57600080fd5b50565b60008060006060848603121561185657600080fd5b61185f846117ea565b925060208401359150604084013561187681611830565b809150509250925092565b6000806040838503121561189457600080fd5b61189d836117ea565b915060208301356118ad81611830565b809150509250929050565b600080600080608085870312156118ce57600080fd5b6118d7856117ea565b93506118e5602086016117ea565b92506118f3604086016117ea565b9396929550929360600135925050565b60008060006060848603121561191857600080fd5b611921846117ea565b92506020840135915060408401356003811061187657600080fd5b6001600160a01b0391909116815260200190565b60006020828403121561196257600080fd5b5051919050565b6001600160a01b0392831681529116602082015260400190565b6001600160a01b0394851681529290931660208301526040820152901515606082015260800190565b6001600160a01b039384168152919092166020820152604081019190915260600190565b6000806000606084860312156119e557600080fd5b8351925060208401519150604084015190509250925092565b634e487b7160e01b600052601160045260246000fd5b80820180821115611a2757611a276119fe565b92915050565b6001600160a01b03968716815294909516602085015260408401929092526060830152608082015290151560a082015260c00190565b81810381811115611a2757611a276119fe565b600082611a9357634e487b7160e01b600052601260045260246000fd5b500490565b6001600160a01b0394851681529290931660208301526040820152606081019190915260800190565b60008060408385031215611ad457600080fd5b505080516020909101519092909150565b600060208284031215611af757600080fd5b8151611b0281611830565b9392505050565b634e487b7160e01b600052602160045260246000fd5b600080600080600080600080610100898b031215611b3c57600080fd5b885197506020890151965060408901519550606089015194506080890151935060a0890151925060c0890151915060e0890151611b7881611830565b809150509295985092959890939650565b6001600160a01b03868116825285166020820152604081018490526060810183905260a0810160038310611bcd57634e487b7160e01b600052602160045260246000fd5b826080830152969550505050505056fe5468657265206973206e6f7420656e6f756768206c6971756964697479206176a2646970667358221220ceae94de7595fc50b6d0b64690ce3792850d31cdb8ee2f4e22a23102bbe19e6e64736f6c63430008110033",
  "devdoc": {
    "kind": "dev",
    "methods": {},
    "version": 1
  },
  "userdoc": {
    "kind": "user",
    "methods": {},
    "version": 1
  },
  "storageLayout": {
    "storage": [],
    "types": null
  }
}