{
  "address": "0xfcDB4564c18A9134002b9771816092C9693622e3",
  "abi": [
    {
      "inputs": [
        {
          "internalType": "address",
          "name": "_ethAddress",
          "type": "address"
        },
        {
          "internalType": "address",
          "name": "_lpcAddress",
          "type": "address"
        },
        {
          "internalType": "address",
          "name": "_dfAddress",
          "type": "address"
        }
      ],
      "name": "init",
      "outputs": [],
      "stateMutability": "nonpayable",
      "type": "function"
    },
    {
      "inputs": [
        {
          "internalType": "address",
          "name": "_pool",
          "type": "address"
        },
        {
          "internalType": "enum LibFacet.TokenVolatility",
          "name": "_volatility",
          "type": "uint8"
        }
      ],
      "name": "initPool",
      "outputs": [],
      "stateMutability": "nonpayable",
      "type": "function"
    }
  ],
  "transactionHash": "0xceec913b351a5c97d6ffc5719e89cecb93bb3d372f41e1326632cfafafd89c84",
  "args": [],
  "numDeployments": 1,
  "solcInputHash": "6ced5da0b437eadf74fc6c73545337e3",
  "bytecode": "0x608060405234801561001057600080fd5b506103aa806100206000396000f3fe608060405234801561001057600080fd5b50600436106100365760003560e01c8063184b95591461003b5780633279ce0014610050575b600080fd5b61004e6100493660046102b5565b610063565b005b61004e61005e3660046102f8565b6100f4565b8261006c610251565b80546001600160a01b0319166001600160a01b039290921691909117905581610093610251565b60010180546001600160a01b0319166001600160a01b0392909216919091179055806100bd610251565b60020180546001600160a01b0319166001600160a01b03929092169190911790556301e1853e6100eb610275565b60020155505050565b60006100fe610275565b6001600160a01b038416600090815260209190915260408120676765c793fa10079d601b1b600482018190556006820155600c8101805462ff000019166201000017905542600b820155915082600181111561015c5761015c610333565b036101cc57610177676765c793fa10079d601b1b606e610349565b600f820155610192676765c793fa10079d601b1b6005610349565b600e8201556101ad676765c793fa10079d601b1b6001610349565b60108201556055600d8201819055605a60098301556008820155505050565b60018260018111156101e0576101e0610333565b0361024c576101fb676765c793fa10079d601b1b60fa610349565b600f820155610216676765c793fa10079d601b1b6008610349565b600e820155610231676765c793fa10079d601b1b6000610349565b60108201556046600d82018190556009820155604160088201555b505050565b7fff5923912191a1cc1ce52c1e63600d3ff20a63ae0f4211e3199b7ba72a991b5a90565b7f66cfe6d1341bbca11619797516c7fbf0624d144c78b9a40a4a3b4fb518fc11b690565b80356001600160a01b03811681146102b057600080fd5b919050565b6000806000606084860312156102ca57600080fd5b6102d384610299565b92506102e160208501610299565b91506102ef60408501610299565b90509250925092565b6000806040838503121561030b57600080fd5b61031483610299565b915060208301356002811061032857600080fd5b809150509250929050565b634e487b7160e01b600052602160045260246000fd5b808202811582820484141761036e57634e487b7160e01b600052601160045260246000fd5b9291505056fea2646970667358221220aa83fbb3ec2df4ceb99f87146f13a570ed02bb8963a42021e65664bbc3a87fc864736f6c63430008110033",
  "devdoc": {
    "kind": "dev",
    "methods": {},
    "version": 1
  },
  "userdoc": {
    "kind": "user",
    "methods": {},
    "version": 1
  },
  "storageLayout": {
    "storage": [],
    "types": null
  }
}