{
  "address": "0x457cCf29090fe5A24c19c1bc95F492168C0EaFdb",
  "abi": [
    {
      "inputs": [
        {
          "internalType": "address",
          "name": "_pool",
          "type": "address"
        }
      ],
      "name": "getPoolAvailableLiquidity",
      "outputs": [
        {
          "internalType": "uint256",
          "name": "",
          "type": "uint256"
        }
      ],
      "stateMutability": "view",
      "type": "function"
    },
    {
      "inputs": [
        {
          "internalType": "address",
          "name": "_pool",
          "type": "address"
        }
      ],
      "name": "getPoolConfiguration",
      "outputs": [
        {
          "internalType": "uint256",
          "name": "reserveDecimals",
          "type": "uint256"
        },
        {
          "internalType": "uint256",
          "name": "baseLTV",
          "type": "uint256"
        },
        {
          "internalType": "uint256",
          "name": "liquidationTHreshold",
          "type": "uint256"
        },
        {
          "internalType": "bool",
          "name": "usageAsCollateralEnabled",
          "type": "bool"
        }
      ],
      "stateMutability": "view",
      "type": "function"
    },
    {
      "inputs": [
        {
          "internalType": "address",
          "name": "_pool",
          "type": "address"
        }
      ],
      "name": "getPoolDecimals",
      "outputs": [
        {
          "internalType": "uint256",
          "name": "",
          "type": "uint256"
        }
      ],
      "stateMutability": "view",
      "type": "function"
    },
    {
      "inputs": [
        {
          "internalType": "address",
          "name": "_pool",
          "type": "address"
        },
        {
          "internalType": "address",
          "name": "_user",
          "type": "address"
        }
      ],
      "name": "getUserBorrowBalances",
      "outputs": [
        {
          "internalType": "uint256",
          "name": "",
          "type": "uint256"
        },
        {
          "internalType": "uint256",
          "name": "",
          "type": "uint256"
        },
        {
          "internalType": "uint256",
          "name": "",
          "type": "uint256"
        }
      ],
      "stateMutability": "view",
      "type": "function"
    },
    {
      "inputs": [
        {
          "internalType": "address",
          "name": "_pool",
          "type": "address"
        },
        {
          "internalType": "address",
          "name": "_user",
          "type": "address"
        }
      ],
      "name": "getUserOriginationFee",
      "outputs": [
        {
          "internalType": "uint256",
          "name": "",
          "type": "uint256"
        }
      ],
      "stateMutability": "view",
      "type": "function"
    },
    {
      "inputs": [
        {
          "internalType": "address",
          "name": "_pool",
          "type": "address"
        },
        {
          "internalType": "address",
          "name": "_user",
          "type": "address"
        }
      ],
      "name": "getUserPoolData",
      "outputs": [
        {
          "internalType": "uint256",
          "name": "compoundedLiquidityBalance",
          "type": "uint256"
        },
        {
          "internalType": "uint256",
          "name": "compoundedBorrowBalance",
          "type": "uint256"
        },
        {
          "internalType": "uint256",
          "name": "originationFee",
          "type": "uint256"
        },
        {
          "internalType": "bool",
          "name": "userUsesPoolAsCollateral",
          "type": "bool"
        }
      ],
      "stateMutability": "view",
      "type": "function"
    },
    {
      "inputs": [
        {
          "internalType": "address",
          "name": "_pool",
          "type": "address"
        }
      ],
      "name": "isPoolBorrowingEnabled",
      "outputs": [
        {
          "internalType": "bool",
          "name": "",
          "type": "bool"
        }
      ],
      "stateMutability": "view",
      "type": "function"
    },
    {
      "inputs": [
        {
          "internalType": "address",
          "name": "_pool",
          "type": "address"
        }
      ],
      "name": "isPoolUsageAsCollateralEnabled",
      "outputs": [
        {
          "internalType": "bool",
          "name": "",
          "type": "bool"
        }
      ],
      "stateMutability": "view",
      "type": "function"
    },
    {
      "inputs": [
        {
          "internalType": "address",
          "name": "_token",
          "type": "address"
        },
        {
          "internalType": "address",
          "name": "_user",
          "type": "address"
        },
        {
          "internalType": "uint256",
          "name": "_amount",
          "type": "uint256"
        }
      ],
      "name": "transferToFeeCollector",
      "outputs": [],
      "stateMutability": "payable",
      "type": "function"
    },
    {
      "inputs": [
        {
          "internalType": "address",
          "name": "_pool",
          "type": "address"
        },
        {
          "internalType": "address",
          "name": "_user",
          "type": "address"
        },
        {
          "internalType": "uint256",
          "name": "_amount",
          "type": "uint256"
        }
      ],
      "name": "transferToPool",
      "outputs": [],
      "stateMutability": "payable",
      "type": "function"
    },
    {
      "inputs": [
        {
          "internalType": "address",
          "name": "_pool",
          "type": "address"
        },
        {
          "internalType": "address",
          "name": "_user",
          "type": "address"
        },
        {
          "internalType": "uint256",
          "name": "_amount",
          "type": "uint256"
        }
      ],
      "name": "transferToUser",
      "outputs": [],
      "stateMutability": "nonpayable",
      "type": "function"
    },
    {
      "inputs": [
        {
          "internalType": "address",
          "name": "_pool",
          "type": "address"
        },
        {
          "internalType": "address",
          "name": "_user",
          "type": "address"
        },
        {
          "internalType": "uint256",
          "name": "_amount",
          "type": "uint256"
        },
        {
          "internalType": "uint256",
          "name": "_borrowFee",
          "type": "uint256"
        },
        {
          "internalType": "enum LibFacet.InterestRateMode",
          "name": "_rateMode",
          "type": "uint8"
        }
      ],
      "name": "updateStateOnBorrow",
      "outputs": [
        {
          "internalType": "uint256",
          "name": "",
          "type": "uint256"
        },
        {
          "internalType": "uint256",
          "name": "",
          "type": "uint256"
        }
      ],
      "stateMutability": "nonpayable",
      "type": "function"
    },
    {
      "inputs": [
        {
          "internalType": "address",
          "name": "_pool",
          "type": "address"
        },
        {
          "internalType": "address",
          "name": "_user",
          "type": "address"
        },
        {
          "internalType": "uint256",
          "name": "_amount",
          "type": "uint256"
        }
      ],
      "name": "updateStateOnDeposit",
      "outputs": [],
      "stateMutability": "nonpayable",
      "type": "function"
    },
    {
      "inputs": [
        {
          "internalType": "address",
          "name": "_pool",
          "type": "address"
        },
        {
          "internalType": "address",
          "name": "_user",
          "type": "address"
        },
        {
          "internalType": "uint256",
          "name": "_amount",
          "type": "uint256"
        },
        {
          "internalType": "bool",
          "name": "_userRedeemedEverything",
          "type": "bool"
        }
      ],
      "name": "updateStateOnRedeem",
      "outputs": [],
      "stateMutability": "nonpayable",
      "type": "function"
    },
    {
      "inputs": [
        {
          "internalType": "address",
          "name": "_pool",
          "type": "address"
        },
        {
          "internalType": "address",
          "name": "_user",
          "type": "address"
        },
        {
          "internalType": "uint256",
          "name": "_paybackAmountMinusFees",
          "type": "uint256"
        },
        {
          "internalType": "uint256",
          "name": "_originationFeeRepaid",
          "type": "uint256"
        },
        {
          "internalType": "uint256",
          "name": "_balanceIncrease",
          "type": "uint256"
        },
        {
          "internalType": "bool",
          "name": "_repaidWholeLoan",
          "type": "bool"
        }
      ],
      "name": "updateStateOnRepay",
      "outputs": [],
      "stateMutability": "nonpayable",
      "type": "function"
    }
  ],
  "transactionHash": "0x545db2a452154f2fb97875cabecec7781b2fa1a029eff941e38c4980709e477d",
  "args": [],
  "numDeployments": 1,
  "solcInputHash": "441b63157a0e59203de0aa8c377051b6",
  "bytecode": "0x608060405234801561001057600080fd5b50611a19806100206000396000f3fe6080604052600436106100b85760003560e01c806337ac6fe4146100bd578063491db4a2146100f75780636f44bb69146101395780639a881174146101595780639fb8afcd1461016e578063a5df1b29146101a9578063afcdbea3146101d9578063c3d3cb8e146101f9578063cba4223614610227578063d79357fb14610247578063da12d96f14610267578063dd2c99f714610287578063f34662dd1461029a578063fa93b2a5146102ba578063feab31ac146102da575b600080fd5b3480156100c957600080fd5b506100dd6100d8366004611762565b6102fa565b604080519283526020830191909152015b60405180910390f35b34801561010357600080fd5b506101176101123660046117c1565b61037e565b60408051948552602085019390935291830152151560608201526080016100ee565b34801561014557600080fd5b506101176101543660046117f4565b610460565b61016c610167366004611816565b6104b4565b005b34801561017a57600080fd5b5061018e6101893660046117c1565b610712565b604080519384526020840192909252908201526060016100ee565b3480156101b557600080fd5b506101c96101c43660046117f4565b610799565b60405190151581526020016100ee565b3480156101e557600080fd5b5061016c6101f4366004611860565b6107c8565b34801561020557600080fd5b506102196102143660046117f4565b610873565b6040519081526020016100ee565b34801561023357600080fd5b506101c96102423660046117f4565b61089f565b34801561025357600080fd5b506102196102623660046117f4565b6108d4565b34801561027357600080fd5b5061016c6102823660046118af565b6108fd565b61016c610295366004611816565b610951565b3480156102a657600080fd5b5061016c6102b5366004611816565b610a99565b3480156102c657600080fd5b5061016c6102d5366004611816565b610b6c565b3480156102e657600080fd5b506102196102f53660046117c1565b610bcd565b6000806000610307610c0d565b6001600160a01b038916600090815260209190915260409020905061032b81610c31565b6000806103388a8a610712565b925050915061034b838a84848c8b610c5c565b610359838a8a848b8b610c7b565b6103658360008a610d62565b61036f838a610db3565b9a909950975050505050505050565b600080600080600061038e610c0d565b6001600160a01b03808916600090815260209283526040808220928a16825260178301909352918220805460019091015491935091036103fa576001600160a01b0387166000908152601790920160205260408220600a015490955090935083925060ff169050610457565b6001600160a01b0387166000908152601783016020526040902081906104209084610f11565b6001600160a01b0389166000908152601790940160205260409093206007810154600a909101549197509295509193505060ff1690505b92959194509250565b6000806000806000610470610c0d565b6001600160a01b039690961660009081526020969096525050604090932080546009820154600b830154600e909301549196909550919350610100900460ff169150565b60006104be610fd7565b600401546001600160a01b031690506104d5610fd7565b546001600160a01b038581169116146106005734156105875760405162461bcd60e51b815260206004820152605f60248201527f557365722069732073656e64696e672045544820616c6f6e672077697468207460448201527f6865204552433230207472616e736665722e20436865636b207468652076616c60648201527f756520617474726962757465206f6620746865207472616e73616374696f6e00608482015260a4015b60405180910390fd5b6040516323b872dd60e01b81526001600160a01b038516906323b872dd906105b790869085908790600401611912565b6020604051808303816000875af11580156105d6573d6000803e3d6000fd5b505050506040513d601f19601f820116820180604052508101906105fa9190611936565b5061070c565b8134101561066e5760405162461bcd60e51b815260206004820152603560248201527f54686520616d6f756e7420616e64207468652076616c75652073656e7420746f604482015274040c8cae0dee6d2e840c8de40dcdee840dac2e8c6d605b1b606482015260840161057e565b6000816001600160a01b03168360405160006040518083038185875af1925050503d80600081146106bb576040519150601f19603f3d011682016040523d82523d6000602084013e6106c0565b606091505b505090508061070a5760405162461bcd60e51b8152602060048201526016602482015275151c985b9cd9995c881bd9881155120819985a5b195960521b604482015260640161057e565b505b50505050565b600080600080610720610c0d565b6001600160a01b03808816600090815260209283526040808220928916825260178301909352918220600181015491935091036107695760008060009450945094505050610792565b60006107758284610f11565b6001830154909150816107888282611969565b9550955095505050505b9250925092565b60006107a3610c0d565b6001600160a01b0390921660009081526020929092525060409020600e015460ff1690565b60006107d2610c0d565b6001600160a01b03861660009081526020919091526040902090506107f681610ffb565b61080281600085610d62565b828160010160008282546108169190611969565b90915550506001600160a01b038416600090815260178201602052604081208054859290610845908490611969565b9091555050811561070a576001600160a01b0384166000908152601782016020526040812061070a91611059565b600061087d610c0d565b6001600160a01b03909216600090815260209290925250604090206001015490565b60006108a9610c0d565b6001600160a01b0390921660009081526020929092525060409020600e015460ff6101009091041690565b60006108de610c0d565b6001600160a01b03909216600090815260209290925250604090205490565b6000610907610c0d565b6001600160a01b038816600090815260209190915260409020905061092e81878786611070565b61093c8187878787876110cb565b61094881866000610d62565b50505050505050565b610959610fd7565b546001600160a01b0390811690841603610a0c576000836001600160a01b0316826040515b60006040518083038185875af1925050503d80600081146109bb576040519150601f19603f3d011682016040523d82523d6000602084013e6109c0565b606091505b505090508061070c5760405162461bcd60e51b815260206004820152601860248201527722b93937b9103bb434b6329039b2b73234b7339022aa241760411b604482015260640161057e565b610a26610a17610fd7565b546001600160a01b0316611135565b6040516323b872dd60e01b81526001600160a01b038416906323b872dd90610a5690859087908690600401611912565b6020604051808303816000875af1158015610a75573d6000803e3d6000fd5b505050506040513d601f19601f8201168201806040525081019061070c9190611936565b6000610aa3610c0d565b6001600160a01b0385166000908152602091909152604090209050610ac781610c31565b610ad081610ffb565b610adc81836000610d62565b6001600160a01b03831660009081526017820160205260408120546001830180549115928592610b0d90849061197c565b90915550506001600160a01b038416600090815260178301602052604081208054859290610b3c90849061197c565b9091555050801561070a576001600160a01b0384166000908152601783016020526040902061070a906001611059565b610b74610fd7565b546001600160a01b0390811690841603610b9d576000826001600160a01b03168260405161097e565b6040516323b872dd60e01b81526001600160a01b038416906323b872dd90610a5690869086908690600401611912565b6000610bd7610c0d565b6001600160a01b038085166000908152602092835260408082209286168252601790920190925290206007015490505b92915050565b7f66cfe6d1341bbca11619797516c7fbf0624d144c78b9a40a4a3b4fb518fc11b690565b610c3e816001015461117d565b610c4b816004015461117d565b6014810154610c599061117d565b50565b610c6586610ffb565b610c738686868686866111c2565b505050505050565b6001600160a01b038516600090815260178701602052604090206001826002811115610ca957610ca961198f565b14610d1c576000826002811115610cc257610cc261198f565b03610cdd576000600d82015560088701546003820155610d1c565b60405162461bcd60e51b815260206004820152601460248201527324b73b30b634b2103137b93937bb9036b7b2329760611b604482015260640161057e565b610d26858561197c565b816001016000828254610d39919061197c565b90915550506007810154610d4e90849061197c565b600782015542600990910155505050505050565b610d9e81838560010154610d76919061197c565b610d809190611969565b60038501546011860154601287015460138801546010890154611378565b60168501556014840155505042600d90910155565b6001600160a01b038116600090815260178301602090815260408083208151610180810183528154815260018201549381019390935260028082015484840152600382015460608501526004820154608080860191909152600583015460a0860152600683015460c0860152600783015460e086015260088301546101008601526009830154610120860152600a83015460ff90811615156101408701528451918201909452600b830180548796610ebe96909594610160870194939284921690811115610e8357610e8361198f565b6002811115610e9457610e9461198f565b81526001820154602082015260028201546040820152600390910154606090910152905250611423565b90506002816002811115610ed457610ed461198f565b03610ee3576000915050610c07565b6001816002811115610ef757610ef761198f565b14610f06576014840154610f09565b60005b949350505050565b60008260010154600003610f2757506000610c07565b6000610f368460010154611459565b9050600080600086600b016002015411610f8b57610f888660030154610f828760080154610f7c89600f0160050154610f6d610c0d565b60020154428c600d0154611474565b906114b6565b906114f7565b90505b610f9d610f9884836114b6565b611534565b915085600101548203610fce5742866009015414610fce57600180870154610fc49161197c565b9350505050610c07565b50949350505050565b7fff5923912191a1cc1ce52c1e63600d3ff20a63ae0f4211e3199b7ba72a991b5a90565b600281015415610c59576110228160050154610f7c83600f016007015484600d0154611557565b6004820155600881015460148201546110519190610f7c90611042610c0d565b600201544286600d0154611474565b600782015550565b600a91909101805460ff1916911515919091179055565b61107984610ffb565b6001600160a01b03831660009081526017850160205260408120600b015460ff16908160028111156110ad576110ad61198f565b0361070a576110bc8583611592565b6110c685846115af565b61070a565b6001600160a01b03851660009081526017870160205260409020600181015485906110f790859061197c565b6111019190611969565b6001820155600887015460038201558115611125576000600d8201819055600c8201555b838160070154610d4e9190611969565b6040516001600160a01b0382166024820152610c599060440160408051601f198184030181529190526020810180516001600160e01b031663161765e160e11b179052611651565b610c598160405160240161119391815260200190565b60408051601f198184030181529190526020810180516001600160e01b031663f82c50f160e01b179052611651565b6001600160a01b038516600090815260178701602090815260408083208151610180810183528154815260018201549381019390935260028082015484840152600382015460608501526004820154608080860191909152600583015460a0860152600683015460c0860152600783015460e086015260088301546101008601526009830154610120860152600a83015460ff90811615156101408701528451918201909452600b8301805461128e9695610160870194849290911690811115610e8357610e8361198f565b905060018160028111156112a4576112a461198f565b146112cc5760008160028111156112bd576112bd61198f565b036112cc576112cc87866115af565b6000846112d9858861197c565b6112e3919061197c565b905060018360028111156112f9576112f961198f565b1461136e5760008360028111156113125761131261198f565b03611326576113218882611592565b61136e565b60405162461bcd60e51b815260206004820152601d60248201527f496e76616c6964206e657720626f72726f772072617465206d6f64652e000000604482015260640161057e565b5050505050505050565b600080868189158015611389575081155b61139c57611397828b6114f7565b61139f565b60005b9050848111156113eb5760006113c36113b9876001611969565b610f828885611969565b90506113cf88826114b6565b6113d98a8961197c565b6113e3919061197c565b945050611406565b6113f988610f7c83886114f7565b611403908761197c565b93505b61141481610f7c8b87611672565b92505050965096945050505050565b6000816020015160000361143957506002919050565b60008261016001516040015111611451576000610c07565b600192915050565b633b9aca00818102908104821461146f57600080fd5b919050565b60008061148186866114f7565b90506114a26114908486611969565b676765c793fa10079d601b1b906116b3565b6114ac908261197c565b9695505050505050565b60008115676765c793fa10079d601a1b19839004841115176114d757600080fd5b50676765c793fa10079d601b1b9102676765c793fa10079d601a1b010490565b60008115676765c793fa10079d601b1b6002840419048411171561151a57600080fd5b50676765c793fa10079d601b1b9190910260028204010490565b633b9aca00808204908206631dcd65008110611551576001820191505b50919050565b6000806115704284611567610c0d565b6002015461172b565b9050676765c793fa10079d601b1b61158885836114b6565b610f09919061197c565b808260030160008282546115a6919061197c565b90915550505050565b808260030154101561163d5760405162461bcd60e51b815260206004820152604b60248201527f54686520616d6f756e742074686174206973206265696e67207375627472616360448201527f7465642066726f6d20746865207661726961626c6520626f72726f777320697360648201526a1034b731b7b93932b1ba1760a91b608482015260a40161057e565b808260030160008282546115a69190611969565b80516a636f6e736f6c652e6c6f67602083016000808483855afa5050505050565b600082808203611686576000915050610c07565b600061169584610f7c87611459565b90506116aa6116a383611459565b82906114f7565b95945050505050565b60006116c06002836119bb565b6000036116d857676765c793fa10079d601b1b6116da565b825b90506116e76002836119cf565b91505b8115610c07576116fa83846114b6565b92506117076002836119bb565b156117195761171681846114b6565b90505b6117246002836119cf565b91506116ea565b6000610f0961173983611459565b610f826117468688611969565b611459565b80356001600160a01b038116811461146f57600080fd5b600080600080600060a0868803121561177a57600080fd5b6117838661174b565b94506117916020870161174b565b935060408601359250606086013591506080860135600381106117b357600080fd5b809150509295509295909350565b600080604083850312156117d457600080fd5b6117dd8361174b565b91506117eb6020840161174b565b90509250929050565b60006020828403121561180657600080fd5b61180f8261174b565b9392505050565b60008060006060848603121561182b57600080fd5b6118348461174b565b92506118426020850161174b565b9150604084013590509250925092565b8015158114610c5957600080fd5b6000806000806080858703121561187657600080fd5b61187f8561174b565b935061188d6020860161174b565b92506040850135915060608501356118a481611852565b939692955090935050565b60008060008060008060c087890312156118c857600080fd5b6118d18761174b565b95506118df6020880161174b565b945060408701359350606087013592506080870135915060a087013561190481611852565b809150509295509295509295565b6001600160a01b039384168152919092166020820152604081019190915260600190565b60006020828403121561194857600080fd5b815161180f81611852565b634e487b7160e01b600052601160045260246000fd5b81810381811115610c0757610c07611953565b80820180821115610c0757610c07611953565b634e487b7160e01b600052602160045260246000fd5b634e487b7160e01b600052601260045260246000fd5b6000826119ca576119ca6119a5565b500690565b6000826119de576119de6119a5565b50049056fea2646970667358221220f8a0b00bfd6478333249a37a41b9569ae0650260c5dcb8489a862683e5f3791064736f6c63430008110033",
  "devdoc": {
    "kind": "dev",
    "methods": {},
    "version": 1
  },
  "userdoc": {
    "kind": "user",
    "methods": {},
    "version": 1
  },
  "storageLayout": {
    "storage": [],
    "types": null
  }
}