{
  "address": "0xd9abC93F81394Bd161a1b24B03518e0a570bDEAd",
  "abi": [
    {
      "inputs": [
        {
          "internalType": "address",
          "name": "_pool",
          "type": "address"
        },
        {
          "internalType": "uint256",
          "name": "_amount",
          "type": "uint256"
        },
        {
          "internalType": "enum LibFacet.InterestRateMode",
          "name": "_rateMode",
          "type": "uint8"
        }
      ],
      "name": "borrow",
      "outputs": [],
      "stateMutability": "nonpayable",
      "type": "function"
    },
    {
      "inputs": [
        {
          "internalType": "address",
          "name": "_pool",
          "type": "address"
        },
        {
          "internalType": "address",
          "name": "_user",
          "type": "address"
        },
        {
          "internalType": "uint256",
          "name": "_amount",
          "type": "uint256"
        }
      ],
      "name": "deposit",
      "outputs": [],
      "stateMutability": "payable",
      "type": "function"
    },
    {
      "inputs": [
        {
          "internalType": "address",
          "name": "_pool",
          "type": "address"
        },
        {
          "internalType": "address",
          "name": "_user",
          "type": "address"
        },
        {
          "internalType": "uint256",
          "name": "_amount",
          "type": "uint256"
        }
      ],
      "name": "redeem",
      "outputs": [],
      "stateMutability": "nonpayable",
      "type": "function"
    },
    {
      "inputs": [
        {
          "internalType": "address",
          "name": "_pool",
          "type": "address"
        },
        {
          "internalType": "uint256",
          "name": "_amount",
          "type": "uint256"
        }
      ],
      "name": "repay",
      "outputs": [],
      "stateMutability": "payable",
      "type": "function"
    },
    {
      "inputs": [
        {
          "internalType": "address",
          "name": "_pool",
          "type": "address"
        },
        {
          "internalType": "bool",
          "name": "_useAsCollateral",
          "type": "bool"
        }
      ],
      "name": "setUserUsePoolAsCollateral",
      "outputs": [],
      "stateMutability": "nonpayable",
      "type": "function"
    },
    {
      "inputs": [
        {
          "internalType": "address",
          "name": "_pool",
          "type": "address"
        },
        {
          "internalType": "address",
          "name": "_user",
          "type": "address"
        }
      ],
      "name": "test",
      "outputs": [],
      "stateMutability": "view",
      "type": "function"
    }
  ],
  "transactionHash": "0x6ac1c18c30d116ef45e2f23bbc0a76f6352f0943712ef01736e205e79ff57776",
  "args": [],
  "numDeployments": 1,
  "solcInputHash": "50890a458b3a6d4c8a235460bba2244c",
  "bytecode": "0x608060405234801561001057600080fd5b506115cd806100206000396000f3fe6080604052600436106100555760003560e01c80630e6dfcd51461005a57806322867d781461007c5780632b6d0ceb1461008f578063824bbb04146100af5780638340f549146100cf578063b6e82e03146100e2575b600080fd5b34801561006657600080fd5b5061007a6100753660046111da565b610102565b005b61007a61008a366004611216565b6102a4565b34801561009b57600080fd5b5061007a6100aa366004611240565b610749565b3480156100bb57600080fd5b5061007a6100ca366004611281565b6107de565b61007a6100dd3660046111da565b610957565b3480156100ee57600080fd5b5061007a6100fd3660046112b8565b610a68565b61012c6040518060400160405280600981526020016872656465656d696e6760b81b815250611040565b306000610137611086565b6001600160a01b03861660009081526020919091526040902060018101549091508311156101b55760405162461bcd60e51b8152602060048201526032602482015260008051602061157883398151915260448201527130b4b630b13632903a37903932b232b2b69760711b60648201526084015b60405180910390fd5b6001600160a01b0384811660009081526015830160205260409081902054905163afcdbea360e01b815287831660048201523360248201526044810186905290851460648201529083169063afcdbea390608401600060405180830381600087803b15801561022357600080fd5b505af1158015610237573d6000803e3d6000fd5b505060405163fa93b2a560e01b81526001600160a01b038516925063fa93b2a5915061026b908890889088906004016112fc565b600060405180830381600087803b15801561028557600080fd5b505af1158015610299573d6000803e3d6000fd5b505050505050505050565b60003090506102f3604051806101000160405280600081526020016000815260200160008152602001600015158152602001600081526020016000815260200160008152602001600081525090565b604051639fb8afcd60e01b81526001600160a01b03831690639fb8afcd906103219087903390600401611320565b606060405180830381865afa15801561033e573d6000803e3d6000fd5b505050506040513d601f19601f82011682018060405250810190610362919061133a565b604080850191909152602084019190915290825251633faacc6b60e21b81526001600160a01b0383169063feab31ac906103a29087903390600401611320565b602060405180830381865afa1580156103bf573d6000803e3d6000fd5b505050506040513d601f19601f820116820180604052508101906103e39190611368565b60e08201526001600160a01b0384166103fa6110aa565b546001600160a01b0316146060820152602081015161046e5760405162461bcd60e51b815260206004820152602a60248201527f546865207573657220646f6573206e746f206861766520616e7920626f72726f6044820152693b903832b73234b7339760b11b60648201526084016101ac565b8060e0015181602001516104829190611397565b60808201526060810151158061049c575080608001513410155b6104ff5760405162461bcd60e51b815260206004820152602e60248201527f496e73756666696369656e74206d73672e76616c75652073656e6420666f722060448201526d3a3432903932b830bcb6b2b73a1760911b60648201526084016101ac565b8060e001518160800151116105e0576080810151604080830151905163da12d96f60e01b81526001600160a01b0385169263da12d96f9261054b928992339260009283906004016113b0565b600060405180830381600087803b15801561056557600080fd5b505af1158015610579573d6000803e3d6000fd5b50505050816001600160a01b0316639a881174826060015161059c5760006105a2565b82608001515b863385608001516040518563ffffffff1660e01b81526004016105c7939291906112fc565b6000604051808303818588803b15801561028557600080fd5b8060e0015181608001516105f491906113e6565b60a0820181905260e08201516040808401516020850151915163da12d96f60e01b81526001600160a01b0387169463da12d96f9461063d948b94339490918414906004016113b0565b600060405180830381600087803b15801561065757600080fd5b505af115801561066b573d6000803e3d6000fd5b5050505060e0810151156106f657816001600160a01b0316639a881174826060015161069857600061069e565b8260e001515b86338560e001516040518563ffffffff1660e01b81526004016106c3939291906112fc565b6000604051808303818588803b1580156106dc57600080fd5b505af11580156106f0573d6000803e3d6000fd5b50505050505b816001600160a01b031663dd2c99f78260600151610715576000610724565b60e083015161072490346113e6565b86338560a001516040518563ffffffff1660e01b81526004016105c7939291906112fc565b604051639fb8afcd60e01b8152600090819081903090639fb8afcd906107759088908890600401611320565b606060405180830381865afa158015610792573d6000803e3d6000fd5b505050506040513d601f19601f820116820180604052508101906107b6919061133a565b9250925092506107c5836110ce565b6107ce826110ce565b6107d7816110ce565b5050505050565b60006107e8611086565b6001600160a01b038416600090815260209182526040808220338352601581019093529020549091506108715760405162461bcd60e51b815260206004820152602b60248201527f5573657220646f6573206e6f74206861766520616e79206c697175696469747960448201526a103232b837b9b4ba32b21760a91b60648201526084016101ac565b3360009081526015820160205260409020600a015460ff16156108ea5760405162461bcd60e51b815260206004820152602b60248201527f55736572206465706f73697420697320616c726561647920757365642061732060448201526a31b7b63630ba32b930b61760a91b60648201526084016101ac565b604051630304fd0d60e31b81526001600160a01b038416600482015233602482015282151560448201523090631827e868906064015b600060405180830381600087803b15801561093a57600080fd5b505af115801561094e573d6000803e3d6000fd5b50505050505050565b61095f6110aa565b546001600160a01b038481169116146109e8576040516370a0823160e01b815281906001600160a01b038516906370a08231906109a09086906004016113f9565b602060405180830381865afa1580156109bd573d6000803e3d6000fd5b505050506040513d601f19601f820116820180604052508101906109e19190611368565b10156109f7565b80826001600160a01b03163110155b610a415760405162461bcd60e51b815260206004820152601b60248201527a24b739bab33334b1b4b2b73a103a37b5b2b7103130b630b731b29760291b60448201526064016101ac565b60405163f34662dd60e01b8152309063f34662dd90610920908690339086906004016112fc565b610a70611130565b60405163a5df1b2960e01b81523090819063a5df1b2990610a959088906004016113f9565b602060405180830381865afa158015610ab2573d6000803e3d6000fd5b505050506040513d601f19601f82011682018060405250810190610ad6919061140d565b610b2d5760405162461bcd60e51b815260206004820152602260248201527f506f6f6c206973206e6f7420656e61626c656420666f7220626f72726f77696e604482015261339760f11b60648201526084016101ac565b6000836002811115610b4157610b41611431565b1480610b5e57506001836002811115610b5c57610b5c611431565b145b610bb65760405162461bcd60e51b815260206004820152602360248201527f496e76616c696420696e7465726573742072617465206d6f64652073656c65636044820152621d195960ea1b60648201526084016101ac565b6040516361e9e5c760e11b815284906001600160a01b0383169063c3d3cb8e90610be49089906004016113f9565b602060405180830381865afa158015610c01573d6000803e3d6000fd5b505050506040513d601f19601f82011682018060405250810190610c259190611368565b1015610c7e5760405162461bcd60e51b8152602060048201526034602482015260008051602061157883398151915260448201527330b4b630b136329034b7103a3432903837b7b61760611b60648201526084016101ac565b6040516370fd015d60e11b8152309063e1fa02ba90610ca19033906004016113f9565b61010060405180830381865afa158015610cbf573d6000803e3d6000fd5b505050506040513d601f19601f82011682018060405250810190610ce39190611447565b15156101e08a0152506040880152602087015261010086015260e085015260c0840181905215159050610d575760405162461bcd60e51b815260206004820152601c60248201527b2a34329031b7b63630ba32b930b6103130b630b731b29034b990181760211b60448201526064016101ac565b816101e0015115610dba5760405162461bcd60e51b815260206004820152602760248201527f54686520626f72726f7765722063616e20616c7265616479206265206c69717560448201526634b230ba32b21760c91b60648201526084016101ac565b60405163249bbe9160e01b815260048101859052309063249bbe9190602401602060405180830381865afa158015610df6573d6000803e3d6000fd5b505050506040513d601f19601f82011682018060405250810190610e1a9190611368565b60608301819052610e785760405162461bcd60e51b815260206004820152602260248201527f54686520616d6f756e7420746f20626f72726f7720697320746f6f20736d616c604482015261361760f11b60648201526084016101ac565b606082015160e083015161010084015160208501516040516312737c3360e01b81526001600160a01b038a1660048201526024810189905260448101949094526064840192909252608483015260a482015230906312737c339060c401602060405180830381865afa158015610ef2573d6000803e3d6000fd5b505050506040513d601f19601f82011682018060405250810190610f169190611368565b60a0830181905260c08301511015610f875760405162461bcd60e51b815260206004820152602e60248201527f496e73756666696369656e7420636f6c6c61746572616c20746f20636f76657260448201526d1030903732bb903137b93937bb9760911b60648201526084016101ac565b60608201516101c0830151604051630deb1bf960e21b81526001600160a01b038416926337ac6fe492610fc2928a9233928b926004016114b1565b60408051808303816000875af1158015610fe0573d6000803e3d6000fd5b505050506040513d601f19601f820116820180604052508101906110049190611505565b6101208401526101a083015260405163fa93b2a560e01b81526001600160a01b0382169063fa93b2a59061026b908890339089906004016112fc565b611083816040516024016110549190611529565b60408051601f198184030181529190526020810180516001600160e01b031663104c13eb60e21b17905261110f565b50565b7f66cfe6d1341bbca11619797516c7fbf0624d144c78b9a40a4a3b4fb518fc11b690565b7fff5923912191a1cc1ce52c1e63600d3ff20a63ae0f4211e3199b7ba72a991b5a90565b611083816040516024016110e491815260200190565b60408051601f198184030181529190526020810180516001600160e01b031663f82c50f160e01b1790525b80516a636f6e736f6c652e6c6f67602083016000808483855afa5050505050565b6040518061020001604052806000815260200160008152602001600081526020016000815260200160008152602001600081526020016000815260200160008152602001600081526020016000815260200160008152602001600081526020016000815260200160008152602001600060028111156111b1576111b1611431565b8152600060209091015290565b80356001600160a01b03811681146111d557600080fd5b919050565b6000806000606084860312156111ef57600080fd5b6111f8846111be565b9250611206602085016111be565b9150604084013590509250925092565b6000806040838503121561122957600080fd5b611232836111be565b946020939093013593505050565b6000806040838503121561125357600080fd5b61125c836111be565b915061126a602084016111be565b90509250929050565b801515811461108357600080fd5b6000806040838503121561129457600080fd5b61129d836111be565b915060208301356112ad81611273565b809150509250929050565b6000806000606084860312156112cd57600080fd5b6112d6846111be565b9250602084013591506040840135600381106112f157600080fd5b809150509250925092565b6001600160a01b039384168152919092166020820152604081019190915260600190565b6001600160a01b0392831681529116602082015260400190565b60008060006060848603121561134f57600080fd5b8351925060208401519150604084015190509250925092565b60006020828403121561137a57600080fd5b5051919050565b634e487b7160e01b600052601160045260246000fd5b808201808211156113aa576113aa611381565b92915050565b6001600160a01b03968716815294909516602085015260408401929092526060830152608082015290151560a082015260c00190565b818103818111156113aa576113aa611381565b6001600160a01b0391909116815260200190565b60006020828403121561141f57600080fd5b815161142a81611273565b9392505050565b634e487b7160e01b600052602160045260246000fd5b600080600080600080600080610100898b03121561146457600080fd5b885197506020890151965060408901519550606089015194506080890151935060a0890151925060c0890151915060e08901516114a081611273565b809150509295985092959890939650565b6001600160a01b03868116825285166020820152604081018490526060810183905260a08101600383106114f557634e487b7160e01b600052602160045260246000fd5b8260808301529695505050505050565b6000806040838503121561151857600080fd5b505080516020909101519092909150565b600060208083528351808285015260005b818110156115565785810183015185820160400152820161153a565b506000604082860101526040601f19601f830116850101925050509291505056fe5468657265206973206e6f7420656e6f756768206c6971756964697479206176a2646970667358221220e02df3f8bac6fef3833ea0071536220036e0e8f44baafd324188721a383aad7064736f6c63430008110033",
  "devdoc": {
    "kind": "dev",
    "methods": {},
    "version": 1
  },
  "userdoc": {
    "kind": "user",
    "methods": {},
    "version": 1
  },
  "storageLayout": {
    "storage": [],
    "types": null
  }
}