{
  "address": "0x19cEcCd6942ad38562Ee10bAfd44776ceB67e923",
  "abi": [
    {
      "inputs": [
        {
          "internalType": "address",
          "name": "_pool",
          "type": "address"
        },
        {
          "internalType": "address",
          "name": "_user",
          "type": "address"
        },
        {
          "internalType": "uint256",
          "name": "_amount",
          "type": "uint256"
        }
      ],
      "name": "borrow",
      "outputs": [],
      "stateMutability": "payable",
      "type": "function"
    },
    {
      "inputs": [
        {
          "internalType": "address",
          "name": "_pool",
          "type": "address"
        },
        {
          "internalType": "address",
          "name": "_user",
          "type": "address"
        },
        {
          "internalType": "uint256",
          "name": "_amount",
          "type": "uint256"
        }
      ],
      "name": "deposit",
      "outputs": [],
      "stateMutability": "payable",
      "type": "function"
    }
  ],
  "transactionHash": "0xf9793a2a6f715404b5f41ba83798b8d02dc4008616ca57144dd3c9c7680e7bf6",
  "args": [],
  "numDeployments": 1,
  "solcInputHash": "92f03726df11eaaf864c8e31d723441e",
  "bytecode": "0x608060405234801561001057600080fd5b506104a9806100206000396000f3fe6080604052600436106100295760003560e01c80635224372c1461002e5780638340f54914610043575b600080fd5b61004161003c3660046103d1565b505050565b005b6100416100513660046103d1565b610059610218565b546001600160a01b03908116908416036100785761003c83838361023c565b6040516370a0823160e01b81526001600160a01b0383811660048301528291908516906370a0823190602401602060405180830381865afa1580156100c1573d6000803e3d6000fd5b505050506040513d601f19601f820116820180604052508101906100e5919061040d565b10156101365760405162461bcd60e51b815260206004820152601b60248201527a24b739bab33334b1b4b2b73a103a37b5b2b7103130b630b731b29760291b60448201526064015b60405180910390fd5b61013e610399565b6001600160a01b031663f34662dd8433846040518463ffffffff1660e01b815260040161016d93929190610426565b600060405180830381600087803b15801561018757600080fd5b505af115801561019b573d6000803e3d6000fd5b50506040516323b872dd60e01b81526001600160a01b03861692506323b872dd91506101cf90859030908690600401610426565b6020604051808303816000875af11580156101ee573d6000803e3d6000fd5b505050506040513d601f19601f82011682018060405250810190610212919061044a565b50505050565b7fff5923912191a1cc1ce52c1e63600d3ff20a63ae0f4211e3199b7ba72a991b5a90565b80826001600160a01b03163110156102925760405162461bcd60e51b815260206004820152601960248201527824b739bab33334b1b4b2b73a1022aa24103130b630b731b29760391b604482015260640161012d565b61029a610399565b6001600160a01b031663f34662dd8484846040518463ffffffff1660e01b81526004016102c993929190610426565b600060405180830381600087803b1580156102e357600080fd5b505af11580156102f7573d6000803e3d6000fd5b505050506000826001600160a01b03168260405160006040518083038185875af1925050503d8060008114610348576040519150601f19603f3d011682016040523d82523d6000602084013e61034d565b606091505b50509050806102125760405162461bcd60e51b815260206004820152601860248201527722b93937b9103bb434b6329039b2b73234b7339032ba341760411b604482015260640161012d565b60006103a3610218565b600101546001600160a01b0316919050565b80356001600160a01b03811681146103cc57600080fd5b919050565b6000806000606084860312156103e657600080fd5b6103ef846103b5565b92506103fd602085016103b5565b9150604084013590509250925092565b60006020828403121561041f57600080fd5b5051919050565b6001600160a01b039384168152919092166020820152604081019190915260600190565b60006020828403121561045c57600080fd5b8151801515811461046c57600080fd5b939250505056fea26469706673582212202348f857febbba399f39932ab032d17e0bc57871ca4dfd3069f94ec74d73af0c64736f6c63430008110033",
  "devdoc": {
    "kind": "dev",
    "methods": {},
    "version": 1
  },
  "userdoc": {
    "kind": "user",
    "methods": {},
    "version": 1
  },
  "storageLayout": {
    "storage": [],
    "types": null
  }
}