{
  "address": "0x927b167526bAbB9be047421db732C663a0b77B11",
  "abi": [
    {
      "inputs": [],
      "stateMutability": "nonpayable",
      "type": "constructor"
    },
    {
      "inputs": [
        {
          "internalType": "address",
          "name": "_asset",
          "type": "address"
        },
        {
          "internalType": "address",
          "name": "_oracle",
          "type": "address"
        }
      ],
      "name": "addAssetOracle",
      "outputs": [],
      "stateMutability": "nonpayable",
      "type": "function"
    },
    {
      "inputs": [
        {
          "internalType": "address",
          "name": "_asset",
          "type": "address"
        }
      ],
      "name": "getAssetPrice",
      "outputs": [
        {
          "internalType": "uint256",
          "name": "",
          "type": "uint256"
        }
      ],
      "stateMutability": "view",
      "type": "function"
    }
  ],
  "transactionHash": "0x04ea2a730a2850957a16cd55afb37821af4cbc2a28f407a133461b4f1e09fc14",
  "args": [],
  "numDeployments": 1,
  "solcInputHash": "92f03726df11eaaf864c8e31d723441e",
  "bytecode": "0x608060405234801561001057600080fd5b50600080546001600160a01b031916331790556102bf806100326000396000f3fe608060405234801561001057600080fd5b50600436106100365760003560e01c80638cb4ba231461003b578063b3596f0714610050575b600080fd5b61004e6100493660046101cd565b610075565b005b61006361005e366004610200565b610127565b60405190815260200160405180910390f35b6000546001600160a01b031633146100f95760405162461bcd60e51b815260206004820152603e60248201527f4f6e6c7920746865206f776e6572206f66207468697320736d61727420636f6e60448201527f74726163742063616e2065786563757465207468697320616374696f6e2e0000606482015260840160405180910390fd5b6001600160a01b03918216600090815260016020526040902080546001600160a01b03191691909216179055565b6001600160a01b03808216600090815260016020526040808220548151633fabe5a360e21b815291519293849391169163feaf968c9160048083019260a09291908290030181865afa158015610181573d6000803e3d6000fd5b505050506040513d601f19601f820116820180604052508101906101a59190610239565b50919695505050505050565b80356001600160a01b03811681146101c857600080fd5b919050565b600080604083850312156101e057600080fd5b6101e9836101b1565b91506101f7602084016101b1565b90509250929050565b60006020828403121561021257600080fd5b61021b826101b1565b9392505050565b80516001600160501b03811681146101c857600080fd5b600080600080600060a0868803121561025157600080fd5b61025a86610222565b945060208601519350604086015192506060860151915061027d60808701610222565b9050929550929590935056fea26469706673582212209e2c58ec6e1550d493775982e8f61dbac2b952be36229beac39e20d7ec2b5cea64736f6c63430008110033",
  "devdoc": {
    "kind": "dev",
    "methods": {},
    "version": 1
  },
  "userdoc": {
    "kind": "user",
    "methods": {},
    "version": 1
  },
  "storageLayout": {
    "storage": [
      {
        "astId": 2293,
        "contract": "contracts/PriceFeed.sol:PriceFeed",
        "label": "owner",
        "offset": 0,
        "slot": "0",
        "type": "t_address"
      },
      {
        "astId": 2298,
        "contract": "contracts/PriceFeed.sol:PriceFeed",
        "label": "priceFeeds",
        "offset": 0,
        "slot": "1",
        "type": "t_mapping(t_address,t_contract(AggregatorV3Interface)45)"
      }
    ],
    "types": {
      "t_address": {
        "encoding": "inplace",
        "label": "address",
        "numberOfBytes": "20"
      },
      "t_contract(AggregatorV3Interface)45": {
        "encoding": "inplace",
        "label": "contract AggregatorV3Interface",
        "numberOfBytes": "20"
      },
      "t_mapping(t_address,t_contract(AggregatorV3Interface)45)": {
        "encoding": "mapping",
        "key": "t_address",
        "label": "mapping(address => contract AggregatorV3Interface)",
        "numberOfBytes": "32",
        "value": "t_contract(AggregatorV3Interface)45"
      }
    }
  }
}